:020000040800F2
:10000000F0120020C11D0008C91D0008CB1D00080A
:10001000CD1D0008CF1D0008D11D00080000000004
:10002000000000000000000000000000D31D0008D8
:10003000D51D000800000000D71D0008352D000860
:10004000DB1D0008DB1D0008DB1D0008DB1D0008B0
:10005000DB1D0008DB1D0008DB1D0008DB1D0008A0
:10006000DB1D0008DB1D0008DB1D0008DB1D000890
:10007000DB1D0008DB1D0008DB1D0008DB1D000880
:10008000DB1D0008DB1D0008E91C0008DB1D000863
:10009000DB1D0008DB1D0008DB1D0008DB1D000860
:1000A0002D300008DB1D0008DB1D0008DB1D0008EB
:1000B00041300008DB1D0008DB1D0008DB1D0008C7
:1000C000DB1D0008DB1D0008DB1D0008DB1D000830
:1000D000DB1D0008DB1D0008DB1D0008DB1D000820
:1000E000DB1D0008DB1D0008DB1D0008DB1D000810
:1000F000DB1D0008DB1D0008DB1D0008DB1D000800
:10010000DB1D0008DB1D0008DB1D0008DB1D0008EF
:10011000DB1D0008DB1D0008DB1D0008DB1D0008DF
:10012000DB1D0008DB1D0008DB1D0008DB1D0008CF
:10013000DB1D0008DB1D0008DB1D0008DB1D0008BF
:10014000DB1D0008DB1D0008DB1D0008DB1D0008AF
:10015000DB1D0008DB1D0008DB1D0008DB1D00089F
:10016000DB1D0008DB1D0008DB1D0008DB1D00088F
:10017000DB1D0008DB1D0008DB1D0008DB1D00087F
:10018000DB1D0008DB1D000800F002F800F060F83D
:100190000AA090E8000C82448344AAF10107DA45E2
:1001A00001D100F055F8AFF2090EBAE80F0013F0D4
:1001B000010F18BFFB1A43F0010318474432000037
:1001C0006432000010F8013B0A4413F0030408BF36
:1001D00010F8014B1D1108BF10F8015B641E05D01B
:1001E00010F8016B641E01F8016BF9D1002D15D0D8
:1001F00010F8014B03F00C030C2BA1EB04040ABF15
:1002000010F8013BA4EB8314A4EB032405F10103D4
:1002100014F8016B5B1E01F8016BF9D5914238BFF0
:1002200010F8013BD1D3704700230024002500269D
:10023000103A28BF78C1FBD8520728BF30C148BF49
:100240000B6070471FB503F0D5F81FBD10B510BD8A
:1002500001F0DFFD1146FFF7F5FF03F0B3F801F001
:10026000FDFD03B4FFF7F2FF03BC01F001FE000047
:100270002E49C96B2E4A11602C49096C51602B49DB
:10028000496C9160114691ED000AB8EE400A80ED8C
:10029000000A91ED010AB8EE400A80ED010A91EDE5
:1002A000020AB8EE400A80ED020A70472148008C2D
:1002B00045F2555108431F4908841E4844300088C0
:1002C00040F40040A1F844007047002019494863F9
:1002D0008863C8630846008C4AF6AA21084015497D
:1002E000088414484430008820F40040A1F84400F9
:1002F0007047DFED111A60EE211AFCEEE11A11EEE3
:10030000900A0C494863DFED0C1A60EEA11AFCEE6E
:10031000E11A11EE900A8863DFED071A61EE211AE7
:10032000FCEEE11A11EE900AC8637047002001400C
:100330003C0C0020000001400040034680ED040A10
:10034000704790ED010AD0ED040AB4EEE00AF1EE38
:1003500010FA1ADD90ED040AD0ED020A30EE200A00
:10036000D0ED010AB4EEE00AF1EE10FA08D290EDF9
:10037000040AD0ED020A30EE200A80ED040A2CE0D7
:1003800090ED010A80ED040A27E090ED010AD0ED1E
:10039000040AB4EEE00AF1EE10FA1AD290ED040A63
:1003A000D0ED030A30EE200AD0ED010AB4EEE00AE7
:1003B000F1EE10FA08DD90ED040AD0ED020A30EEFD
:1003C000600A80ED040A08E090ED010A80ED040A5D
:1003D00003E090ED010A80ED040A704780ED010A08
:1003E000704790ED020AD0ED000A20EE200AD0ED11
:1003F000020AB7EE001A71EE600A90ED011A00EEE3
:10040000810A80ED010A7047DFEDC30AC0ED000AE2
:10041000DFEDC10AC0ED010A80ED050A80ED060A94
:100420007047D0ED000A90ED011A70EEC10AB0EEEF
:10043000600AD0ED050A90ED031A41EE000AC0ED06
:10044000050AD0ED050A90ED071AF4EEC10AF1EEA7
:1004500010FA02D2D0ED050A01E0D0ED070A90EDC6
:10046000081AF4EEC10AF1EE10FA0EDDD0ED050A1D
:1004700090ED071AF4EEC10AF1EE10FA02D2D0EDB7
:10048000050A04E0D0ED070A01E0D0ED080AC0ED4E
:10049000050AD0ED050A90ED021A41EE000AC0ED02
:1004A000060AD0ED060A90ED071AF4EEC10AF1EE45
:1004B00010FA02D2D0ED060A01E0D0ED070A90ED65
:1004C000081AF4EEC10AF1EE10FA0EDDD0ED060ABC
:1004D00090ED071AF4EEC10AF1EE10FA02D2D0ED57
:1004E000060A04E0D0ED070A01E0D0ED080AC0EDED
:1004F000060A7047F0EE400ADFED883A60EEA33A54
:10050000B0EE632ADFED863A62EE233AB0EE631A6C
:10051000FDEEC13A13EE900A824901EB8001D1ED64
:10052000003AF0EE631A7F4A411C02EB8101D1EDE3
:10053000003AF0EE632A03EE900AF8EEE33A71EE29
:10054000633AB0EE633A32EEE14AF0EE613A43EEDE
:10055000043AB0EE630A7047B0EE402A9FED6F4A4E
:10056000F5EE003A42EE043AF0EE630A05E0F7EEEB
:10057000003A70EEE33AF0EE630AF7EE003AF4EE7A
:10058000E30AF1EE10FAF2DCDFED653A20EEA31A91
:10059000FDEEC13A13EE900A624901EB8001D1ED04
:1005A000001A604A411C02EB8101D1ED002A03EEE2
:1005B000900AF8EEE33A31EE633A72EEE13AB0EEC9
:1005C000610A03EE230A704710B5B0EE403AF0EE30
:1005D000602A0021002200239FED4F4AF0EE440ADA
:1005E000B0EE621AF0EE431AB5EEC01AF1EE10FA50
:1005F00007D1F5EEC01AF1EE10FA02D19FED460ACE
:1006000068E0B5EEC01AF1EE10FA04D2B1EE414A3C
:10061000B0EE441A0222F5EEC01AF1EE10FA04D23E
:10062000B1EE614AF0EE441A0423F4EEC11AF1EE81
:1006300010FA06DDF0EE413AB0EE611AF0EE631A00
:1006400001218C181C44E0B281EE812AB7EE004AE9
:1006500034EE425A9FED344ADFED344A04EE824ACA
:10066000DFED334A45EE044A24EE824AF0EE440AB6
:1006700008282BD2DFE800F004070C11161B2025F8
:10068000B0EE600A25E09FED2B4A34EE600A20E0D0
:100690009FED294A34EE600A1BE09FED264A30EEBA
:1006A000840A16E09FED254A34EE600A11E09FEDC2
:1006B000244A30EE840A0CE09FED1F4A30EE840A93
:1006C00007E09FED1F4A34EE600A02E09FED120A38
:1006D00000BF00BF10BDB5EEC00AF1EE10FA15DD87
:1006E000B6EE001A20EE011AF0EE410A10EE100AE2
:1006F000144901EB600000EE100A80EE801AF6EE5D
:10070000001A01EE801AB0EE410A03E0DFED020AA2
:10071000B0EE600A704700000000000083F9223E3E
:100720000000004408000020A3927A3E4BC8873D99
:10073000DB0F493FDB0FC93FDB0F4940DB0FC940EF
:10074000E4CB9640F51DBD1F10B504469FEDFE0A93
:100750002046FFF759FE9FEDFC0A04F12400FFF745
:100760003DFE9FEDF90A84ED0C0A9FEDF70A84ED3A
:100770001C0A9FEDF50A84ED1D0A10BD10B5044654
:1007800094ED100AD4ED200AF1EE600A94ED121AED
:1007900000EE810A84ED150A94ED110AD4ED200AC9
:1007A000F1EE600A94ED131A00EE810A84ED160A48
:1007B00094ED1C0AD4ED220A94ED121A00EEC10A3F
:1007C00084ED170A94ED1D0AD4ED220A94ED131A54
:1007D00000EEC10A84ED180A94ED170A20EE000A13
:1007E000D4ED180A94ED181A00EE810AD4ED210A0E
:1007F00094ED141A60EE810A94ED211AD4ED141AC6
:1008000021EE211A00EEC10A84ED190A94ED1F0AA7
:10081000D4ED170A20EE200AD4ED230A94ED191A1C
:1008200070EEC10A20EE200A84ED1A0A94ED1F0A28
:10083000D4ED180A20EE200AD4ED230A94ED191AFB
:1008400070EEC10A20EE200A84ED1B0A94ED150A11
:10085000D4ED1A0A70EE200A94ED1C0A94ED1E1ACB
:1008600001EE200A84ED1C0A94ED160AD4ED1B0A51
:1008700070EE200A94ED1D0A94ED1E1A01EE200A76
:1008800084ED1D0A94ED1C0AD4ED220A94ED121A8F
:1008900000EEC10A84ED170A94ED1D0AD4ED220A78
:1008A00094ED131A00EEC10A84ED180A94ED180AAB
:1008B000D4ED0D0A20EE200A84ED000A94ED170A0B
:1008C000D4ED0E0A20EE200A84ED010A2046FFF73F
:1008D000A8FD94ED060A84ED090A04F12400FFF74F
:1008E00080FD94ED0C0AD4ED1E0A94ED091A00EE79
:1008F000810A84ED0C0A07E094ED0C0ADFED930AFF
:1009000030EE600A84ED0C0A94ED0C0ADFED8F0ADC
:10091000B4EEE00AF1EE10FAEEDC07E094ED0C0A1A
:10092000DFED8A0A30EE200A84ED0C0A94ED0C0A01
:10093000B5EEC00AF1EE10FAF0D394ED171AF0EE0E
:10094000410A94ED181AB0EE410AFFF73DFE84ED1E
:100950000F0AD4ED0C0AB0EE600AFFF7CBFD84ED70
:100960000E0AD4ED0C0AB0EE600AFFF7F5FD84ED37
:100970000D0A10BD10B504469FED730A2046FFF71F
:1009800043FD9FED710A04F12400FFF727FD9FED61
:100990006E0A84ED0C0A9FED6C0A84ED140A9FED3B
:1009A0006A0A84ED150A9FED680A84ED180A9FED26
:1009B000660A84ED190A10BD10B5044694ED210AAB
:1009C000B1EE400AD4ED140A20EE200AD4ED090A53
:1009D00094ED221A60EE810A94ED151A00EEC10A18
:1009E000D4ED200A94ED101A00EE810AD4ED200A0D
:1009F00094ED181A00EEC10AD4ED140A94ED1A1AF7
:100A000041EE000AC4ED140A94ED210AB1EE400A49
:100A1000D4ED150A20EE200AD4ED090A94ED221A2D
:100A200060EE810A94ED141A00EE810AD4ED200ADA
:100A300094ED111A00EE810AD4ED200A94ED191AF2
:100A400000EEC10AD4ED150A94ED1A1A41EE000A1F
:100A5000C4ED150A94ED140AD4ED120A30EE600AC2
:100A600084ED160A94ED150AD4ED130A30EE600AEF
:100A700084ED170A94ED160AD4ED1B0AB4EEE00AD1
:100A8000F1EE10FA02D294ED160A01E094ED1B0A81
:100A9000D4ED1B0AF1EE600AB4EEE00AF1EE10FAB2
:100AA0000EDD94ED160AD4ED1B0AB4EEE00AF1EE69
:100AB00010FA02D294ED160A06E094ED1B0A03E048
:100AC00094ED1B0AB1EE400A84ED180A94ED170A62
:100AD000D4ED1B0AB4EEE00AF1EE10FA02D294ED66
:100AE000170A01E094ED1B0AD4ED1B0AF1EE600A2F
:100AF000B4EEE00AF1EE10FA0EDD94ED170AD4ED33
:100B00001B0AB4EEE00AF1EE10FA02D294ED170AD5
:100B100006E094ED1B0A03E094ED1B0AB1EE400AD7
:100B200084ED190A94ED180AD4ED1C0A94ED161AF6
:100B300000EE810A84ED180A94ED190AD4ED1C0A1E
:100B400094ED171A04E0000000000000DB0FC9401C
:100B500000EE810A84ED190A94ED180AB1EE400AFC
:100B6000D4ED0D0A20EE200A84ED000A94ED190A56
:100B7000D4ED0E0A20EE200A84ED010A2046FFF78C
:100B800050FC94ED060A84ED090A04F12400FFF7F5
:100B900028FC94ED0C0AD4ED1A0A94ED091A00EE23
:100BA000810A84ED0C0A07E094ED0C0A5FED190A46
:100BB00030EE600A84ED0C0A94ED0C0A5FED1D0A1C
:100BC000B4EEE00AF1EE10FAEEDC07E094ED0C0A68
:100BD0005FED220A30EE200A84ED0C0A94ED0C0A37
:100BE000B5EEC00AF1EE10FAF0D394ED191AF0EE5A
:100BF000410A94ED181AB1EE411AB0EE410AFFF71E
:100C0000E3FC84ED0F0AD4ED0C0AB0EE600AFFF7A6
:100C100071FC84ED0E0AD4ED0C0AB0EE600AFFF709
:100C20009BFC84ED0D0A10BD10B504469FEDF70A3C
:100C300084ED110A9FEDF50A2046FFF77FFB9FED3B
:100C4000F30A04F11400FFF779FB9FEDF00A04F1B9
:100C50002800FFF773FB10BD90ED0F0AD0ED120ACC
:100C600060EE200A90ED091A90ED110A00EE810A5B
:100C700080ED110A07E090ED110ADFEDE50A30EE94
:100C8000600A80ED110A90ED110ADFEDE10AB4EE81
:100C9000E00AF1EE10FAEEDC07E090ED110ADFED6C
:100CA000DC0A30EE200A80ED110A90ED110AB5EE53
:100CB000C00AF1EE10FAF0D3704710B504469FED6C
:100CC000D30A84ED110A9FEDD10A2046FFF736FBC7
:100CD0009FEDCE0A04F11400FFF730FB9FEDCB0A25
:100CE00004F12800FFF72AFB10BD90ED0F0AD0EDAC
:100CF000120A60EE200A90ED091A90ED110A00EE3A
:100D0000810A80ED110A07E090ED110ADFEDC00ABB
:100D100030EE600A80ED110A90ED110ADFEDBC0A99
:100D2000B4EEE00AF1EE10FAEEDC07E090ED110A05
:100D3000DFEDB70A30EE200A80ED110A90ED110ABE
:100D4000B5EEC00AF1EE10FAF0D3704790ED070A45
:100D5000D0ED060AB0EE001A11EE200AD0ED080A16
:100D600030EE600ADFEDAB0A20EE200A80ED120AB9
:100D700090ED070AD0ED080A30EE600ADFEDA60A12
:100D800020EE200A80ED130A704790ED120AD0ED94
:100D9000010A20EE200AD0ED130A90ED021A00EEAF
:100DA000810A80ED140A90ED120AB1EE400AD0EDEE
:100DB000020A20EE200AD0ED130A90ED011A00EE8F
:100DC000810A80ED150A704790ED090AD0ED010AFD
:100DD00020EE200AD0ED0A0A90ED021A00EEC10AB8
:100DE00080ED160A90ED090AD0ED020A20EE200AE5
:100DF000D0ED0A0A90ED011A00EE810A80ED170A83
:100E000070470EB59FED813AB0EE431A9FED7F3AE1
:100E1000F0EE431A9FED7D3AB0EE432A9FED7B3A08
:100E2000B0EE430A9FED793AF0EE430A9FED773A30
:100E3000F0EE432A002100910191029190ED173AC2
:100E4000DFED763A23EE233AB0EE431AD0ED163AB0
:100E5000B0EE084AB0EE413A14EE233AF6EE003A0C
:100E600023EE233AD0ED053A23EE233AF0EE431A6F
:100E7000D0ED163AB8EE084AB0EE413A14EE233AF5
:100E8000F6EE003A23EE233AD0ED053A23EE233A6C
:100E9000B0EE432A90ED053A23EE013AB0EE431A44
:100EA00080F84410B5EEC01AF1EE10FA04DD90F8A7
:100EB0004410491C80F84410F5EEC01AF1EE10FA07
:100EC00004DD90F84410891C80F84410B5EEC02A67
:100ED000F1EE10FA04DD90F84410091D80F844107A
:100EE00090F8441007292FD2DFE801F02E092504DD
:100EF00017122000B0EE610AF0EE410A25E0B1EED3
:100F0000613AB0EE430AB1EE423AF0EE430A1CE019
:100F1000B0EE410AF0EE420A17E0B1EE413AB0EE0F
:100F2000430AB1EE613AF0EE430A0EE0B0EE420A37
:100F3000F0EE610A09E0B1EE423AB0EE430AB1EEDA
:100F4000413AF0EE430A00E000BF00BF30EE203A25
:100F5000F0EE432A90ED1B3AB4EEE23AF1EE10FACD
:100F60000DD290ED1B3A23EE003AC3EE223AB0EEDA
:100F7000630A90ED1B3A33EE403AF0EE430A90EDEF
:100F80001B3A33EE403A33EE603AF5EE003A23EE88
:100F9000233AD0ED1C3AB6EE004A04EE233A8DED2A
:100FA000003A9DED003AF6EE003A03EE803A8DED00
:100FB000013A9DED013AF6EE003A03EEA03A8DEDCE
:100FC000023A90F84410072979D2DFE801F0AF29FE
:100FD00094045D427900F0EE003AB0EE603A03EE20
:100FE000803ADFED0C3A23EE233AD0ED043A23EEBB
:100FF000233A80ED163A9FED083A20EE833AD0ED81
:10100000043A23EE233A80ED173A90E00000000006
:10101000DB0FC940ABAAAA3E3ACD133FD7B3DD3FA1
:1010200030EEC03A5FED053A23EE233AD0ED043AB4
:1010300023EE233A80ED163A30EE203A5FED0A3A7D
:1010400023EE233AD0ED043A23EE233A80ED173A0B
:101050006DE0F8EE003AB0EE403A13EEA03A5FEDE4
:10106000133A23EE233AD0ED043A23EE233A80EDEF
:10107000163A1FED173A20EE033AD0ED043A23EE6C
:10108000233A80ED173A52E0F8EE003AB0EE403ADB
:1010900013EEA03A5FED213A23EE233AD0ED043A65
:1010A00023EE233A80ED163A9FEDFE3A20EE033A06
:1010B000D0ED043A23EE233A80ED173A37E035E0DD
:1010C00030EEC03A5FED2D3A23EE233AD0ED043AEC
:1010D00023EE233A80ED163AB1EE403A33EE603A11
:1010E0005FED333A23EE233AD0ED043A23EE233A70
:1010F00080ED173A1BE0F0EE003AB0EE603A03EEF6
:10110000803A5FED3C3A23EE233AD0ED043A23EEE9
:10111000233A80ED163A9FEDE33A20EE833AD0ED84
:10112000043A23EE233A80ED173A00E000BF00BFF7
:1011300010F8441FDC4A515C6A4602EB810191EDD4
:10114000003A80ED073A0278D7490831895C6A464F
:1011500002EB810191ED003A80ED083A0278D24924
:101160001031895C6A4602EB810191ED003A80ED15
:10117000093A44380EBD90F84410CC4A525C00F154
:10118000780101EB820191ED000A80ED060A90F8EA
:101190004420C64908318A5C00F1780101EB8201E4
:1011A00091ED000A80ED070A90F84420BF49103104
:1011B0008A5C00F1780101EB820191ED000A80ED7B
:1011C000080A70470EB55FED6F4AF0EE642A5FEDD6
:1011D000714AB0EE643A5FED734AF0EE643A5FED47
:1011E000754AB0EE640A5FED774AF0EE640A5FED8F
:1011F000794AB0EE644A00210091019102915FEDBD
:101200007D4AB0EE641A5FED7F4AF0EE641A5FED3E
:10121000814AB0EE642AD0ED174A1FED805A64EE81
:10122000854AF0EE642A90ED165AF0EE085AF0EE78
:10123000624A55EE854AB6EE005A64EE854A90ED54
:10124000055A64EE854AB0EE643A90ED165AF8EE0F
:10125000085AF0EE624A55EE854AB6EE005A64EE40
:10126000854A90ED055A64EE854AF0EE643AD0ED79
:10127000054A64EEA24AF0EE642A80F84410F5EEC6
:10128000C02AF1EE10FA04DD90F84410491C80F8F1
:101290004410B5EEC03AF1EE10FA04DD90F84410B7
:1012A000891C80F84410F5EEC03AF1EE10FA04DD26
:1012B00090F84410091D80F8441090F84410072954
:1012C0002FD2DFE801F02E09250417122000B0EE1E
:1012D000430AF0EE620A25E0F1EE434AB0EE640AFA
:1012E000F1EE634AF0EE640A1CE0B0EE620AF0EE42
:1012F000630A17E0F1EE624AB0EE640AF1EE434A87
:10130000F0EE640A0EE0B0EE630AF0EE430A09E084
:10131000F1EE634AB0EE640AF1EE624AF0EE640A5E
:1013200000E000BF00BF70EE204AB0EE644AD0ED8E
:101330001B4AF4EEC44AF1EE10FA0DD2D0ED1B4A6E
:1013400064EE804A84EE845AB0EE450AD0ED1B4A22
:1013500074EEC04AF0EE640AF7EE004A74EEC04A3A
:1013600074EEE04AB5EE005A64EE854ACDED024ACD
:10137000DDED024AB6EE005A45EE204ACDED014AB7
:10138000DDED014AB6EE005A45EE004ACDED004AC9
:10139000D0ED1C4AF4EEC04AF1EE10FA1BDDD0EDA0
:1013A0001C4AF4EEE04AF1EE10FA14DDD0ED1C4ACE
:1013B00074EEC04AB6EE005A64EE854AB0EE641A86
:1013C000D0ED1C4A74EEE04ABEEE005A64EE854A47
:1013D000B0EE642A40E0D0ED1C4AF4EEC04AF1EED3
:1013E00010FA19DDD0ED1C4AF4EEE04AF1EE10FAE5
:1013F00012D8D0ED1C4A74EEC04AB5EE005A64EE25
:10140000854AB0EE641AD0ED1C4ABDEE005A64EE77
:10141000854AF0EE641A1FE0D0ED1C4AF4EEC04A93
:10142000F1EE10FA18D8D0ED1C4AF4EEE04AF1EED5
:1014300010FA11DDD0ED1C4AB5EE005A64EE854A73
:10144000F0EE641AD0ED1C4A74EEE04ABDEE005A8C
:1014500064EE854AB0EE642ADDED004A74EE814AFE
:1014600090ED1D5A74EEC54AC0ED2B4ADDED014AE0
:1014700074EEA14A90ED1D5A74EEC54AC0ED2C4A97
:1014800090F84410072976D2DFE801F07576FE0463
:10149000FDDDFC00B0EE005AF0EE604A45EE004A79
:1014A00006E000003ACD13BF1008002028080020F5
:1014B0009FEDFE5A64EE854A283010ED065A64EE20
:1014C000854AC0ED0C4ADFEDFA4A60EEA44A10ED01
:1014D000065A64EE854AC0ED0D4A017FF54A515C1B
:1014E0006A4602EB8101D1ED004A74EE814AC0EDFB
:1014F0001B4A027FEF490831895C6A4602EB810191
:10150000D1ED004A74EEA14AC0ED1C4A027FE949C0
:101510001031895C6A4602EB8101D1ED004A74EE1C
:10152000824AC0ED1D4A017FE24A515C6A4602EBE5
:101530008101D1ED004A74EEC14AC0ED1E4A027F1E
:10154000DC490831895C6A4602EB8101D1ED004A31
:1015500074EEE14AC0ED1F4A027FD6491031895C22
:101560006A4602EB8101D1ED004A74EEC24AC0ED39
:10157000204A283817E215E270EEC04A9FEDCB5A98
:1015800064EE854A283010ED065A64EE854AC0EDB7
:101590000C4A70EE204A9FEDC65A64EE854A10ED63
:1015A000065A64EE854AC0ED0D4A017FC14A515C7E
:1015B0006A4602EB8101D1ED004A74EEA14AC0ED0A
:1015C0001B4A027FBB490831895C6A4602EB8101F4
:1015D000D1ED004A74EE814AC0ED1C4A027FB54944
:1015E0001031895C6A4602EB8101D1ED004A74EE4C
:1015F000824AC0ED1D4A017FAE4A515C6A4602EB49
:101600008101D1ED004A74EEE14AC0ED1E4A027F2D
:10161000A8490831895C6A4602EB8101D1ED004A94
:1016200074EEC14AC0ED1F4A027FA2491031895CA5
:101630006A4602EB8101D1ED004A74EEC24AC0ED68
:10164000204A2838AFE1B8EE005AF0EE404A55EE95
:10165000204A9FED965A64EE854A283010ED065ACE
:1016600064EE854AC0ED0C4ADFED914A60EE244AF3
:1016700010ED065A64EE854AC0ED0D4A017F8D4A91
:10168000515C02E0B5E04BE023E16A4602EB8101E8
:10169000D1ED004A74EE824AC0ED1B4A027F8549B3
:1016A0000831895C6A4602EB8101D1ED004A74EE93
:1016B000814AC0ED1C4A027F7E491031895C6A462E
:1016C00002EB8101D1ED004A74EEA14AC0ED1D4A42
:1016D000017F784A515C6A4602EB8101D1ED004AF4
:1016E00074EEC24AC0ED1E4A027F72490831895C1D
:1016F0006A4602EB8101D1ED004A74EEC14AC0EDA9
:101700001F4A027F6B491031895C6A4602EB8101F6
:10171000D1ED004A74EEE14AC0ED204A283842E19A
:10172000B8EE005AF0EE404A55EE204A9FED5F5A5F
:1017300064EE854A283010ED065A64EE854AC0ED05
:101740000C4A5FEDA84A60EE244A10ED065A64EE9A
:10175000854AC0ED0D4A017F564A515C6A4602EB4C
:101760008101D1ED004A74EE824AC0ED1B4A027F2E
:1017700050490831895C6A4602EB8101D1ED004A8B
:1017800074EEA14AC0ED1C4A027F4A491031895CBF
:101790006A4602EB8101D1ED004A74EE814AC0ED48
:1017A0001D4A017F434A515C6A4602EB8101D1ED3B
:1017B000004A74EEC24AC0ED1E4A027F3D4908311C
:1017C000895C6A4602EB8101D1ED004A74EEE14A80
:1017D000C0ED1F4A027F37491031895C6A4602EB2F
:1017E0008101D1ED004A74EEC14AC0ED204A28388B
:1017F000D9E070EEC04A9FED2D5A64EE854A28303C
:1018000010ED065A64EE854AC0ED0C4AF1EE404AEE
:1018100074EEE04A9FED265A64EE854A10ED065AB2
:1018200064EE854AC0ED0D4A017F224A515C6A464A
:1018300002EB8101D1ED004A74EEA14AC0ED1B4AD2
:10184000027F1C490831895C6A4602EB8101D1EDB7
:10185000004A74EE824AC0ED1C4A027F15491031DD
:10186000895C6A4602EB8101D1ED004A74EE814A3F
:10187000C0ED1D4A017F0F4A515C6A4602EB8101AF
:10188000D1ED004A74EEE14AC0ED1E4A027F0949DB
:101890000831895C6A4602EB8101D1ED004A74EEA1
:1018A000C24AC0ED1F4A027F024905E0ABAAAA3E28
:1018B0003ACD133F100800201031895C6A4602EBD4
:1018C0008101D1ED004A74EEC14AC0ED204A2838AA
:1018D00069E0B0EE005AF0EE604A45EE004A1FEDB6
:1018E0000D5A64EE854A283010ED065A64EE854A9A
:1018F000C0ED0C4ADFED614A60EEA44A10ED065AD5
:1019000064EE854AC0ED0D4A017F5D4A515C6A462E
:1019100002EB8101D1ED004A74EE814AC0ED1B4A11
:10192000027F57490831895C6A4602EB8101D1ED9B
:10193000004A74EE824AC0ED1C4A027F50491031C1
:10194000895C6A4602EB8101D1ED004A74EEA14A3E
:10195000C0ED1D4A017F4A4A515C6A4602EB810193
:10196000D1ED004A74EEC14AC0ED1E4A027F4449DF
:101970000831895C6A4602EB8101D1ED004A74EEC0
:10198000C24AC0ED1F4A027F3D491031895C6A4658
:1019900002EB8101D1ED004A74EEE14AC0ED204A2C
:1019A000283800E000BF00BF0EBD10B504469FED13
:1019B000350A2046FEF728FD9FED320A04F1240087
:1019C000FEF722FD9FED2F0A04F14800FEF7B6FC5A
:1019D00010BD10B504469FED2B0A2046FEF714FDFE
:1019E0009FED280A04F12400FEF70EFD10BD10B58E
:1019F000044694ED120AD4ED1B0A20EE200A84ED71
:101A0000170A94ED120AD4ED1B0A20EE200A84ED89
:101A1000180A94ED170A84ED070A94ED170AB1EE3F
:101A2000400A84ED080A94ED130A84ED000A94ED4F
:101A3000150A84ED010A2046FEF7F3FC94ED060A30
:101A400084ED190A94ED180A84ED100A94ED180A31
:101A5000B1EE400A84ED110A94ED140A84ED090AEE
:101A600094ED160A84ED0A0A04F12400FEF7D9FC6D
:101A700094ED0F0A84ED1A0A10BD00003ACD13BF91
:101A8000100800200000000010B5044604F10C000E
:101A9000FFF7CAF804F15C00FFF70FF904F5B07026
:101AA000FFF783FF04F5F470FFF793FF04F516705A
:101AB000FEF74AFE04F53A70FEF75CFF0120607005
:101AC00010BD70B50446A06818B1606820F0010030
:101AD00060602078072872D2DFE800F0040E606AA8
:101AE000757FFE00606820F0020060602046FFF70E
:101AF000CBFF01202070F1E0207900F00100E0B37D
:101B000077480068401C7649086014281CD90020DA
:101B1000086094ED390AF3EE040A80EE201A84ED91
:101B2000391A94ED3A0AF3EE040A80EE201A84ED95
:101B30003A1A94ED3B0AF3EE040A80EE201A84ED83
:101B40003B1A0220207028E094ED390AD4ED360AC1
:101B500030EE200A84ED390A94ED3A0AD4ED370AC2
:101B600030EE200A84ED3A0A94ED3B0AD4ED380AAF
:101B700030EE200A84ED3B0A0FE0FFE79FED590AA3
:101B800084ED390A9FED570A84ED3A0A9FED550A14
:101B900084ED3B0A0020524908609FE0207900F064
:101BA000010010B10320207001E00020207095E0BA
:101BB000207900F0010018B10420207002E08CE0D0
:101BC000002020708AE0207900F0010010B105208B
:101BD000207001E00020207080E0207900F00100FA
:101BE000002872D004F1AC00FFF7B0F894ED3D0A84
:101BF00084EDA80A94ED3E0A84EDA90A94ED760AD4
:101C000084EDAA0A94ED410A84EDA60A94ED420AF5
:101C100084EDA70A04F51670FEF7B0FD607830B1C8
:101C2000012805D0022810D0032828D11AE027E087
:101C300004F1800004F51671D1E90D350A6BC96B0A
:101C4000C0E90C35C26281631AE004F1800004F53A
:101C50001671D1E90D350A6BC96BC0E90C35C2624A
:101C600081630DE004F1800004F51671D1E90D35B2
:101C70000A6BC96BC0E90C35C262816300E000BF2A
:101C800000BF04F1AC00FFF780F894ED3F0A84ED4B
:101C90008F0A94ED400A84ED900A04F5F470FFF782
:101CA000A6FE94ED930A84ED340A94ED940A84ED33
:101CB000350A04F1AC00FFF787F8606820F00200F5
:101CC000801C606007E007E0FFE7606820F002002A
:101CD00060600020207001E000E000BF00BF70BD28
:101CE000BC0B00200000000010B50421304800F0BB
:101CF00001F900285BD004212D4800F0BFF82D48E1
:101D0000FEF7B6FA2B4890ED000A2B4880ED360A14
:101D1000284890ED010A284880ED370A254890EDC3
:101D2000020A254880ED380A90ED390AD0ED360ACE
:101D300030EE600ADFED210A20EE200A80ED310A44
:101D400090ED3A0AD0ED370A30EE600ADFED1B0A5B
:101D500020EE200A80ED320A90ED3B0AD0ED380AE1
:101D600030EE600ADFED150A20EE200A80ED330A1E
:101D7000FFF7A7FE10480079C0F34000A8B10E4855
:101D8000AC30FFF73EF80C48D0ED451AB0EE611AC2
:101D9000D0ED441AF0EE610AD0ED431AB0EE610ABC
:101DA000FEF7A7FAFEF782FA01E0FEF78EFA10BD01
:101DB00000200140240C002040080020C20DDC3B24
:101DC0000948804709480047FEE7FEE7FEE7FEE7CF
:101DD000FEE7FEE7FEE7FEE7FEE7FEE7044805490B
:101DE000054A064B704700004D2D00088901000888
:101DF000F00C0020F0120020F00E0020F00E002069
:101E00007047704770470000004870478C0C0020F6
:101E100070477546FFF7F8FFAE4605006946534622
:101E200020F00700854618B020B5FFF7D7FFBDE8C2
:101E300020404FF000064FF000074FF000084FF031
:101E4000000B21F00701AC46ACE8C009ACE8C009C2
:101E5000ACE8C009ACE8C0098D46704710B504462F
:101E6000AFF300802046BDE81040FEF7FAB900004D
:101E700001491820ABBEFEE726000200CA430260FB
:101E8000704700220A12D3430360704721B1826871
:101E900042F00102826003E0826822F00102826067
:101EA000704700000021084A1168084A1140D0E933
:101EB00000231A4383681A43C3681A431143044A30
:101EC000C2F804137047000004230140E030FCFF17
:101ED000002001400A460021816821F4702111434D
:101EE000816070470A460021816821F44011114346
:101EF000816070470246002013680B400BB101203F
:101F000000E00020704710B50B460021D9B2012433
:101F100004FA01F11AB144680C43446002E04468D9
:101F20008C43446010BD000030B502460020002301
:101F30005068104C20400D790C6844EA0524204379
:101F4000506090680C4C2040D1E903542C438D68BC
:101F50002C434D7944EA450420439060D06A20F434
:101F600070000C7D641EE4B2234340EA0350D0624B
:101F700030BD0000FFFEFFFCFDF7FFC0F0B50446DA
:101F80001546002000220026092911DDE068A1F194
:101F90000A0707EB470C072707FA0CF29043A1F159
:101FA0000A0707EB470703FA07F21043E0600CE06B
:101FB000206901EB410C072707FA0CF2904301EB73
:101FC000410703FA07F210432061A06BC0F30156EA
:101FD000EF1C06F1010CA7EB0C0707EB870C1F2782
:101FE00007FA0CF29043EF1C06F1010CA7EB0C076B
:101FF00007EB870701FA07F21043A063F0BD21B198
:10200000426842F48052426003E0426822F4805207
:102010004260704710B50A4600210023816B21F40D
:102020004011531E41EA0351816310BDF0B50446CF
:102030000D4600200021092D11DDE068A5F10A06FA
:1020400006EB4607072606FA07F18843A5F10A06BC
:1020500006EB460603FA06F10843E0600CE020694F
:1020600005EB4507072606FA07F1884305EB450609
:1020700003FA06F108432061072A0FDA606B561E47
:1020800006EB86071F2606FA07F18843561E06EB65
:10209000860605FA06F10843606322E00D2A0FDA8E
:1020A000206BD61F06EB86071F2606FA07F188432A
:1020B000D61F06EB860605FA06F10843206310E0FA
:1020C000E06AA2F10D0606EB86071F2606FA07F165
:1020D0008843A2F10D0606EB860605FA06F10843D1
:1020E000E062F0BD816841F080418160704700008E
:1020F00038B10849096841F40001074AC2F80413DD
:1021000006E00449096821F40001034AC2F80413F7
:1021100070470000042301400020014000B58BB04F
:102120000120FFF7E5FF00200990079008900A9032
:1021300007A8FFF7B7FE0020019001208DF80800E6
:102140008DF8090000200390059001208DF81800FB
:1021500001A92348FFF7E8FE0423012200212048BB
:10216000FFF764FF04211E48FFF754FF01231A46BE
:1021700008211B48FFF702FF01230222062118480D
:10218000FFF7FCFE0123032211461548FFF7F6FE78
:102190000123042209211248FFF7F0FE0021104814
:1021A000FFF72DFF4FF400110D48FFF79BFE4FF492
:1021B00080310B48FFF78EFE40F207410848FFF7D9
:1021C00060FE012240F207410548FFF79CFE012115
:1021D0000348FFF75BFE0248FFF784FF0BB000BD2A
:1021E0000020014010B500F077FD0121084600F005
:1021F000CFFC0121022000F0CBFC0121042000F0E3
:10220000C7FC0121082000F0C3FC0121102000F0D0
:10221000BFFC0121202000F0BBFC0121402000F088
:10222000B7FC0121802000F0B3FC0121080200F07E
:10223000AFFC0121084600F0BBFC0121C80200F000
:10224000B7FC0121084600F0C3FC0121080200F0A0
:10225000BFFC0121880300F0BBFC10BD00B58FB0AE
:1022600000BF154800F089FA0028FAD100900190CB
:102270001248029000200390012004900020059055
:102280004FF48060069040000790800008900001A5
:102290000A904012099000200B9001200C90002021
:1022A0000D900E906946044800F072FA0121024830
:1022B00000F058FA0FB000BD10640240000000208A
:1022C0001CB54FF48061B74800F005FB102000906A
:1022D00000208DF8040001208DF807006946B248FF
:1022E00000F082FA4FF48060009001208DF8040025
:1022F0008DF8070000208DF805006946A94800F018
:1023000073FA012000908DF8040002208DF8070078
:1023100000208DF805006946A34800F065FA022008
:10232000009001208DF8040002208DF807000020A5
:102330008DF8050069469C4800F056FA01219A483C
:1023400000F0C6FA0221984800F0C2FA042000907A
:1023500000208DF8040001208DF80700694692489E
:1023600000F042FA0820009000208DF804000120BF
:102370008DF8070069468C4800F036FA102000906E
:1023800000208DF8040001208DF80700694686487A
:1023900000F02AFA03208DF80400012000900020AC
:1023A0008DF807006946814800F01EFA03208DF879
:1023B00004004020009000208DF8070069467C480A
:1023C00000F012FA03208DF804000820009000208D
:1023D0008DF807006946764800F006FA03208DF86C
:1023E00004000220009000208DF8070069466F4825
:1023F00000F0FAF902208DF8040000208DF80600A4
:102400004FF48070009000208DF8070003208DF8B5
:1024100005006946664800F0E7F902208DF80400DF
:1024200000208DF806004FF40070009000208DF819
:10243000070003208DF8050069465D4800F0D4F9D7
:1024400002208DF8040000208DF806004FF4806013
:10245000009000208DF8070003208DF805006946E4
:10246000534800F0C1F902208DF8040000208DF8D7
:1024700006004FF40050009000208DF80700032064
:102480008DF805006946494800F0AEF902208DF844
:10249000040000208DF806004FF4804000900020DA
:1024A0008DF8070003208DF8050069463F4800F0CD
:1024B0009BF902208DF8040000208DF806004FF4EF
:1024C0000040009000208DF8070003208DF80500E3
:1024D0006946364800F088F900208DF80400012094
:1024E0008DF806000003009000208DF807000320FF
:1024F0008DF8050069462D4800F076F90122082183
:102500002B4800F0B9F901220921294800F0B4F95B
:1025100001220A21264800F0AFF901220D212348AB
:1025200000F0AAF901220E21204800F0A5F90122AD
:102530000F211E4800F0A0F901220C211B4800F0D9
:102540009BF94FF48060009000208DF80400032078
:102550008DF8050000208DF807006946154800F049
:1025600043F94FF40060009000208DF80400032030
:102570008DF8050000208DF8070069460D4800F031
:1025800033F94FF48050009000208DF804000320B0
:102590008DF8050000208DF807006946054800F019
:1025A00023F91CBD00140240001002400004024048
:1025B00000000240001C024010B50421014800F058
:1025C0007EF910BD0010024010B50821014800F04E
:1025D00076F910BD0010024038B54FF0FF300521EC
:1025E000002807DA0A07140E164A00F00F031B1F13
:1025F000D45403E00A07130E134A135400BF4FF4D8
:10260000A06000F0BBFA12208DF8000003208DF8C6
:10261000010000208DF8020001208DF803006846BB
:1026200000F070FA18208DF8000000208DF80100ED
:102630008DF8020001208DF80300684600F062FA70
:1026400038BD000018ED00E000E400E000B58DB0FA
:102650000121374800F021FD4FF40070ADF8300043
:102660002020ADF82A000020ADF8280001208DF8C8
:10267000320041F267000B900AA92D4800F060FE7D
:102680007020ADF814000120ADF816000420ADF85C
:10269000180000200790ADF82000ADF82200ADF83A
:1026A0002400ADF8260005A9214800F023FD05A966
:1026B0001F4800F05DFD05A91D4800F0ABFD54204A
:1026C000079005A91A4800F0F5FD7021184800F0A0
:1026D0002DFE4FF40060ADF804004010ADF8060088
:1026E0000020ADF808001520ADF80A004FF4805026
:1026F000ADF80C004000ADF80E000020ADF8100061
:1027000001A90B4800F0B3FC8021094800F0C2FC8D
:1027100001228021064800F0E4FC0121044800F079
:102720009AFC0121024800F0C4FC0DB000BD00007D
:10273000000001400EB54FF40070ADF80800002015
:10274000ADF80200ADF800008DF80A00401E0190BF
:1027500069464FF0804000F0F3FD0121880700F04A
:102760009CFC0EBD21B1026842F00102026003E050
:10277000026822F0010202607047014600200A68E8
:1027800002F001020AB1012000E0002070470000C1
:1027900010B500220268134B1A40CC680B68234323
:1027A0004C6923438C692343CC6923430C6A23433C
:1027B0004C6A23438C6A23434C6B23438C6B234327
:1027C0001A430260426922F00702D1E90B34234325
:1027D0001A4342610B6943604B6883608B68C36036
:1027E00010BD00003F801CF0F0B50A460021002318
:1027F000002400BF3DE0012505FA01F3156805EA54
:1028000003049C4234D105684F000326BE40B54303
:10281000056015794E00B5400668354305601579A9
:10282000012D02D01579022D16D185684F0003269F
:10283000BE40B543856055794E00B5408668354346
:102840008560456801268E40B543456045689679A8
:102850008E40B6B235434560C5684F000326BE4082
:10286000B543C560D5794E00B540C6683543C560EF
:10287000491C1029BFD3F0BDF0B5002300244D073B
:10288000ED0E02FA05F3CE1000F1200555F82650A2
:102890004E07F70E0F26BE40B543CF1000F12006BD
:1028A00046F82750CE1000F1200555F8265045EA8D
:1028B0000304CE1000F1200545F82640F0BD024685
:1028C000002013690B400BB1012000E0002070478D
:1028D0000A048261704781617047000070B5FFF79C
:1028E0006BFE0446FFF770FE0546012C05D1094832
:1028F000006810B9012008490860012D05D107487A
:10290000006810B9022004490860024804600348C6
:10291000056070BD1C0C0020C00B0020200C0020A6
:1029200010B504462046FDF70CFD04F11400FDF738
:1029300008FD10BD10B5044694ED180AD4ED200A28
:10294000B4EEE00AF1EE10FA02D294ED180A01E0BA
:1029500094ED200AD4ED210AB4EEE00AF1EE10FA6B
:102960000EDD94ED180AD4ED200AB4EEE00AF1EE83
:1029700010FA02D294ED180A04E094ED200A01E066
:1029800094ED210A84ED130A04F14800FDF7D9FC07
:1029900094ED160A84ED000A94ED190A84ED010AFB
:1029A0002046FDF73EFD94ED1A0ADFED190A20EEF0
:1029B000200A84ED090AD4ED1B0A60EEA00A94ED0A
:1029C0001C1AD4ED1C1A41EE210AB0EE600AFDF784
:1029D00082FE84ED0A0A04F12400FDF722FDD4ED05
:1029E0000F0AB0EE600AFDF785FDD4ED060A20EE71
:1029F000200A84ED1E0AD4ED0F0AB0EE600AFDF73E
:102A0000ABFDD4ED060A20EE200A84ED1F0A10BDAE
:102A10003ACD133F10B504462078052864D194EDD3
:102A2000A00A84ED710A607830B1012805D002282F
:102A30003ED0032856D148E055E004F10C00FFF7E2
:102A40006FFF9FED2A0A84ED8D0A94ED120AD4EDF2
:102A5000070A20EE200A84ED8E0A94ED710AF3EE47
:102A60000E0AB4EEE00AF1EE10FA1DDBD4F874039E
:102A7000401CC4F87403C82819D3D4ED8E0AB0EEF4
:102A8000600A04F5B070FDF7BFFCD4ED710AB7EE33
:102A9000001A70EE810AB0EE600A04F5D470FDF7FA
:102AA0004DFC0220607002E00020C4F874031AE0BC
:102AB00004F5B070FFF73EFF94ED760A84ED8D0AC1
:102AC00094ED770A84ED8E0A0DE004F5B070FFF7FF
:102AD00031FF94ED760A84ED8D0A94ED770A84ED4A
:102AE0008E0A00E000BF00E000BF10BD0000000043
:102AF0000348406820F00100014948607047000029
:102B00004008002070B5002100230F22C4781CB3B8
:102B1000174C246804F4E064C4F5E064C4F30721AE
:102B2000C1F10404E3B20A4144789C40E1B28478E4
:102B3000144021430C07210E0E4C05786155047892
:102B400004F01F050124AC4005786D11AD0005F1BE
:102B5000E025C5F8004109E0047804F01F050124D0
:102B6000AC40054D0678761145F8264070BD000052
:102B70000CED00E000E400E080E100E002490143E8
:102B8000024A1160704700000000FA050CED00E0F9
:102B900029B1064A12680243044B1A6004E0034A52
:102BA00012688243014B1A607047000030380240BF
:102BB00029B1064A12680243044B1A6004E0034A32
:102BC00012688243014B1A6070470000403802408F
:102BD00029B1064A12680243044B1A6004E0034A12
:102BE00012688243014B1A6070470000443802406B
:102BF0000CB50020019000903348006840F480300C
:102C00003149086000BF3048006800F4003000908F
:102C10000198401C0190009818B90198B0F5A04F98
:102C2000F1D12948006800F4003010B10120009073
:102C300001E0002000900098012844D12248403053
:102C4000006840F080502049403108601F4800680B
:102C500040F440401D4908601B48083000681A498C
:102C6000083108600846006808600846006840F4BB
:102C7000A05008601648091F0860081F006840F04F
:102C80008070091F086000BF0F48006800F00070E6
:102C90000028F9D040F205700E4908600A48083053
:102CA000006820F003000849083108600846006801
:102CB00040F00200086000BF03480830006800F0E0
:102CC0000C000828F8D10CBD00380240007000400C
:102CD00008544007003C024030B51349481EB0F18B
:102CE000807F01D301201BE0481E4FF0E02250619D
:102CF00050170F22002807DA13071D0E0B4B00F0A8
:102D00000F04241F1D5503E013071C0E084B1C5411
:102D100000BF00204FF0E0229061072010610020EA
:102D200008B100BFFEE730BD4090020018ED00E0A2
:102D300000E400E010B5034800F068F90248FFF72E
:102D400069FE10BDC40B00204008002010B51548D6
:102D5000006840F47000134908601348006840F0B0
:102D600001001149086000200F49083108600E4831
:102D700000680E4908400C4908600D48091D0860AC
:102D8000081F006820F48020091F08600020064901
:102D90000C310860FFF72CFF4FF0006001498039CB
:102DA000086010BD88ED00E000380240FFFFF6FE2D
:102DB0001030002410B504461248806C00EE100A52
:102DC000B8EE400A84ED030A9FED0F0A84ED060A6F
:102DD0009FED0E0A84ED090A9FED0B0A84ED0C0AA3
:102DE00004F10C00FDF7FDFA04F11800FDF7F9FA03
:102DF00004F12400FDF7F5FA04F13000FDF7F1FAD3
:102E000010BD0000002001400000000000F07F45E0
:102E100010B504462046FFF7CDFFFFF75FFD00BF6A
:102E20004548806820B1A06820F00100401CA060E7
:102E3000B7EE000A404880ED6F0A80ED120A80ED7F
:102E4000260A00BFD4ED0A0A9FED3C1A70EEC10AB3
:102E50009FED3B1A60EE810A9FED3A1A80EE810ADF
:102E600080ED700A00BFD4ED040A9FED371A20EE02
:102E7000810A80ED2F0AF7EE000A80EE801A80EDBD
:102E8000301A80ED720A80ED8C0A00BF607830B194
:102E9000012812D002282AD003284AD13AE0606DD6
:102EA000401C6065216D884206D300206065204685
:102EB00000F04EF8012060703CE0A06820B1FFF700
:102EC00017FE0320607011E02048006801280DD132
:102ED00000201E49086000BF1748406820F001002C
:102EE000401C1549486000BF0220607022E0A068C5
:102EF00020B1FFF7FDFD032060700AE01348006871
:102F0000012806D1002011490860FFF7F1FD0120DA
:102F100060700FE00D480068022809D100200B49BD
:102F20000860A06000BF0449886000BF0120607095
:102F300000E000BF00BF10BD4008002000000045B9
:102F4000A0C92C440000E144510AA53CC00B00205C
:102F500010B504460F48806C00EE900AF8EE600A47
:102F6000B0EE600A04F10C00FDF738FA9FED0A0A92
:102F700004F11800FDF732FA9FED080A04F124006D
:102F8000FDF72CFA9FED040A04F13000FDF726FA54
:102F900010BD0000002001400000000000F07F454F
:102FA00010B50446207900F0010060B32078401C81
:102FB00020701548FFF72CFF207800F00100F0B9D1
:102FC000207800F00200022819D0207800F00400D8
:102FD000042814D0207800F0080008280FD02078AA
:102FE00000F0100010280AD0207800F020002028DF
:102FF00005D0207800F04000402800D000BF606875
:1030000020F00100606010BDC40B0020017901F0C8
:10301000010129B9416821F00101491C416004E026
:10302000816821F00201891C8160704710B5802100
:10303000024800F02CF8FDF748F910BD00000140EF
:1030400010B50121880700F043F818B10121880765
:1030500000F01DF810BD21B1028842F0800202800C
:1030600004E002884FF67F731A40028070470A8896
:103070004B881A438B881A43CB881A430B891A430F
:103080004B891A438B891A43A0F844207047CA43DE
:1030900002827047CA430282704721B1028842F01F
:1030A0000102028004E002884FF6FE731A4002809B
:1030B000704731B1B0F8442042F40042A0F84420F7
:1030C00005E0B0F84420C2F30E02A0F84420704797
:1030D00002460020138A0B400BB1012000E00020C3
:1030E00070471AB183890B43838102E083898B4344
:1030F0008381704770B5002400220023058C4FF6B1
:10310000FE7635400584028C8388048B4FF68F75DC
:103110002C40B51E2C400D882C43751E2A408D89ED
:103120002A434D882A43104DA84202D00F4DA84291
:1031300013D14FF6F7752A40CD892A434FF6FB7518
:103140002A408D882A434FF6FF652B404FF6FF55E6
:103150002B400D8A2B434D8A2B43838004838D683B
:103160004563028470BD000000000140000401407E
:1031700070B5002400220023058C4FF6EF76354011
:103180000584028C8388048B48F6FF752C404FF62B
:10319000FF452C400D884FF6FF7606EA05252C43A7
:1031A0004FF6DF752A408D8906EA05152A434D88BA
:1031B00006EA05152A43154DA84202D0144DA8422F
:1031C0001DD14FF67F752A40CD894FF6FF7606EA6E
:1031D00005152A434FF6BF752A408D8806EA051566
:1031E0002A434FF6FF352B404FF2FF752B400D8AD7
:1031F00006EA85052B434D8A06EA85052B43838025
:1032000004838D688563028470BD00000000014066
:103210000004014070B5002400220023058C4FF605
:10322000FF6635400584028C8388848B4FF68F754A
:103230002C404FF6FC752C400D882C434FF6FF5563
:103240002A408D894FF6FF7606EA05252A434D88E8
:1032500006EA05252A43154DA84202D0144DA8427E
:103260001DD14FF2FF752A40CD894FF6FF7606EA51
:1032700005252A434FF6FF352A408D8806EA0525A5
:103280002A434EF6FF752B404DF6FF752B400D8AF5
:1032900006EA05152B434D8A06EA05152B43838064
:1032A00084838D68C563028470BD00000000014006
:1032B0000004014070B5002200230024058C4EF666
:1032C000FF7635400584038C8488828B48F6FF7531
:1032D0002A404FF6FF452A400D884FF6FF7606EA52
:1032E00005252A434DF6FF752B408D8906EA0535E5
:1032F0002B434D8806EA05352B430A4DA84202D0E0
:10330000094DA84208D14BF6FF752C400D8A4FF6A7
:10331000FF7606EA85152C43848082838D680564D8
:10332000038470BD000001400004014082884FF614
:103330008F731A40828082880A438280704700001F
:1033400000220288184B98420ED0184B98420BD09E
:10335000B0F1804F08D0164B984205D0154B9842DB
:1033600002D0154B984204D14FF68F731A404B8808
:103370001A43124B984207D0114B984204D04FF693
:10338000FF431A400B891A4302804B68C3620B88C3
:103390000385054B984202D0044B984201D18B7AA9
:1033A000038601238382704700000140000401402E
:1033B0000004004000080040000C004000100040E5
:1033C0000014004072B6FEF70DFFFEF779FFFEF71E
:1033D00045FFFEF7A3FEFFF739F9FFF7ABF9FFF75B
:1033E000FBF862B600BF0248FFF7DAFDFBE700001A
:1033F000C40B00204FF04070E1EE100A704700004F
:103400002034000800000020240C0000C401000843
:103410005C3B0008240C0020CC06000028020008B9
:1034200092000100FF00920E493CB10AC93C2BC337
:10343000163D2EFB483D752B7B3D04A9963D80B67D
:10344000AF3D36BDC83D2FBCE13D73B2FA3D87CFDD
:10345000093E8340163EB5AB223EA2102F3ECF6EF2
:103460003B3EC2C5473E0115543E135C603E7F9A09
:103470006C3ECCCF783EC07D823E938E883E229AB1
:103480008E3E32A0943E86A09A3EE59AA03E128FD0
:10349000A63ED47CAC3EEF63B23E2A44B83E491D02
:1034A000BE3E15EFC33E53B9C93ECA7BCF3E41363F
:1034B000D53E80E8DA3E4F92E03E7533E63EBBCB28
:1034C000EB3EEA5AF13ECBE0F63E275DFC3EE4E7F8
:1034D000003F3D9C033F824B063F9BF5083F6B9AA4
:1034E0000B3FDA390E3FCDD3103F2A68133FD9F690
:1034F000153FC07F183FC6021B3FD17F1D3FCBF653
:103500001F3F9967223F25D2243F5636273F159407
:10351000293F4AEB2B3FDE3B2E3FBB85303FC9C8DE
:10352000323FF30400FF00353F233A373F4268390A
:103530003F3B8F3B3FF9AE3D3F67C73F3F70D841B0
:103540003F01E2433F03E4453F65DE473F12D14977
:103550003FF8BB4B3F029F4D3F207A4F3F3D4D51BF
:103560003F4918533F31DB543FE595563F53485888
:103570003F6AF2593F1A945B3F532D5D3F05BE5E93
:103580003F2146603F97C5613F5A3C633F59AA645B
:103590003F880F663FD86B673F3CBF683FA7096A0B
:1035A0003F0C4B6B3F5E836C3F93B26D3F9ED86E7A
:1035B0003F73F56F3F0809713F5213723F47147311
:1035C0003FDD0B743F0BFA743FC6DE753F07BA76DA
:1035D0003FC58B773FF853783F9812793F9DC77965
:1035E0003F02737A3FBE147B3FCDAC7B3F283B7CD0
:1035F0003FC9BF7C3FAC3A7D3FCCAB7D3F23137EC0
:103600003FB0707E3F6DC47E3F580E7F3F6D4E7F52
:103610003FAB847F3F0FB17F3F97D37F3F43EC7F2A
:103620003F11FB7F3F30040000800821102118214A
:103630002021282130313842C448215021582160AE
:10364000216821702178218021882190219821A052
:1036500021A821B021B821C021C821D021D821E042
:1036600021E821F021F8250025082510251825201E
:103670002528253025382540254825502558256002
:10368000256825702578258025882590259825A0F2
:1036900025A825B025B825C025C825D025D825E0E2
:1036A00025E825F025F829002908291029182920BE
:1036B00029282930293829402948295029582960A2
:1036C000296829702978298029882990299829A092
:1036D00029A829B029B829C029C829D029D829E082
:1036E00029E829F029F82D00032D08032D10032DBA
:1036F00018032D20032D28032D30032D38032D40D2
:10370000032D48032D50032D58032D60032D68030E
:103710002D70032D78032D80032D88032D90032D0C
:1037200098032DA0032DA8032DB0032DB8032DC0A1
:10373000032DC8032DD0032DD8032DE0032DE8035E
:103740002DF0032DF8035D000412BC1012BC181EEE
:10375000BD000412BD281EBD00041EBD000412BD24
:10376000401EBD00041EBD00041EBD00041EBE00A0
:10377000041EBE00041EBE00041EBE000412BE8055
:1037800012BE881EBE00041EBE00041EBE0004122F
:10379000BEA812BEB012BEB81EBE00041EBE0004FB
:1037A00012BED012BED81EBE000412BEE812BEF079
:1037B00012BEF81EBE00041EBE000416BE1016BEC9
:1037C000181EBE000416BE281EBE00041EBE000445
:1037D0001EBE000416BE481EBE00041EBE00041617
:1037E000BF601EBF000416BF701EBF00041EBF00D6
:1037F0000416BF881EBF00041EBF000416BFA01E13
:10380000BF00041EBF000416BFB816BFC016BFC855
:1038100016BFD016BFD81EBF00041EBF000416BFBF
:10382000F01EBF00041ABF001ABF081EBF00041E0E
:10383000BF00041EBF00041ABF281ABF301ABF38C9
:103840001EBF00041EBF00041EBF00041ABF581A8A
:10385000BF601EBF00041EBF00041ABF781EBF0059
:10386000041EBF00041ABF901ABF981ABFA01ABF47
:10387000A81ABFB01EBF00041EBF00041ABFC81E96
:10388000BF00041EBF00041ABFE01ABFE81ABFF051
:103890001ABFF81EBF00041EBF00041EBF10031E87
:1038A000BF18031EBF20031EBF00041EBF00041E5E
:1038B000BF38031EBF40031EBF48031EBF50031E78
:1038C000BF00041EBF60031EBF68031EBF70031E3F
:1038D000BF00041EBF00041EBF88031EBF90031E4E
:1038E000BF00041EBF00041EBFA8031EBFB0031EFE
:1038F000BF00041EBFC0031EBFC8031EBF00041EBE
:10390000BFD8031EBFE0031EBF00041EBFF0031E8E
:10391000BFF8031EBF000431082110211821202107
:10392000282130313842C448215021582160216873
:1039300021702178218021882190219821A021A81F
:1039400021B021B821C021C821D021D821E021E80F
:1039500021F021F8250025082510251825202528E7
:1039600025302538254025482550255825602568CF
:1039700025702578258025882590259825A025A8BF
:1039800025B025B825C025C825D025D825E025E8AF
:1039900025F025F829002908291029182920292887
:1039A000293029382940294829502958296029686F
:1039B00029702978298029882990299829A029A85F
:1039C00029B029B829C029C829D029D829E029E84F
:1039D00029F029F82D00032D08032D10032D1803BD
:1039E0002D20032D28032D30032D38032D40032DCA
:1039F00048032D50032D58032D60032D68032D70AF
:103A0000032D78032D80032D88032D90032D98031B
:103A10002DA0032DA8032DB0032DB8032DC0032D19
:103A2000C8032DD0032DD8032DE0032DE8032DF07E
:103A3000032DF8031DFF073E800508100601000056
:103A400002020520070002010100020722021421E0
:103A50000B12010B11063202113301021F0110017A
:103A6000100780406F12833A046EBA58081009DBC1
:103A70000F49422EE34D3C04A2BC2AE128611810F4
:103A80000D18B7513800004040CDCCCC3D27123F37
:103A900010123904023EB950026900011006666630
:103AA000663FCCC00005428FC2753D50C009813BC6
:103AB0008E3B664348386613404104022AC14810D1
:103AC000057CD9203E040226BE781005A0C92C44EE
:103AD0000462C47200081B34DC22401474C7D40191
:103AE0002224011AEC60057DD0133F4CA4092E342A
:103AF000894873197E45D0100508FCD745046AC56E
:103B000010040546CDCC4C3DB8297C64159A8384BD
:103B10004652B89E3E90FCC1392F56D439ED849759
:103B200039400009567B094743894E38409049FC8B
:103B3000600780410AD7233D84041023CEAFE639C5
:103B40003EEB28459E755144D0BA41BCA184012268
:0C3B50000CA13CCFE8032A030000000099
:040000050800018965
:00000001FF
