:020000040800F2
:10000000880A002049010008530100085501000832
:1000100000000000000000000000000000000000E0
:100020000000000000000000000000005701000870
:10003000000000000000000059010008D52E000853
:10004000000000005D0100085D0100085D0100087E
:100050005D0100085D0100085D010008000000006E
:100060000000000000000000000000000000000090
:10007000D9040008ED3100085D0100085D010008A9
:100080005D0100085D0100085D010008000000003E
:100090005D0100085D0100085D0100085D010008C8
:1000A000000000005D01000800000000213500088C
:1000B000653500080000000000000000000000009E
:1000C00000F002F800F030F80CA030C8083824180E
:1000D0002D18A246671EAB4654465D46AC4201D180
:1000E00000F022F87E460F3E0FCCB6460126334282
:1000F00000D0FB1AA246AB4633431847E84700003E
:10010000084800000023002400250026103A01D3EF
:1001100078C1FBD8520700D330C100D50B607047BF
:100120001FB51FBD10B510BD00F001F91146FFF756
:10013000F7FF03F06FFB00F019F903B4FFF7F2FFCC
:1001400003BC00F01BF90000084909488047094832
:100150000047FEE7FEE7FEE7FEE7FEE7FEE70000FA
:1001600005480649044A064B70470000FFFFFFFFA1
:10017000E52E0008C100000888060020880A00203B
:100180008806002001E004C0091F0429FBD28B0768
:1001900001D50280801CC90700D002707047002979
:1001A0000BD0C30702D00270401C491E022904D3A1
:1001B000830702D50280801C891EE3E70022EEE758
:1001C0000022DFE7002203098B422CD3030A8B4273
:1001D00011D300239C464EE003460B433CD400223F
:1001E00043088B4231D303098B421CD3030A8B4251
:1001F00001D394463FE0C3098B4201D3CB01C01A1F
:10020000524183098B4201D38B01C01A52414309E9
:100210008B4201D34B01C01A524103098B4201D3D7
:100220000B01C01A5241C3088B4201D3CB00C01A44
:10023000524183088B4201D38B00C01A52414308BC
:100240008B4201D34B00C01A5241411A00D20146E1
:100250005241104670475DE0CA0F00D0494203107A
:1002600000D34042534000229C4603098B422DD3C9
:10027000030A8B4212D3FC22890112BA030A8B4271
:100280000CD3890192118B4208D3890192118B42C0
:1002900004D389013AD0921100E08909C3098B4245
:1002A00001D3CB01C01A524183098B4201D38B0188
:1002B000C01A524143098B4201D34B01C01A52412B
:1002C00003098B4201D30B01C01A5241C3088B4270
:1002D00001D3CB00C01A524183088B4201D38B005B
:1002E000C01A5241D9D243088B4201D34B00C01AE5
:1002F0005241411A00D20146634652415B101046FA
:1003000001D34042002B00D54942704763465B1041
:1003100000D3404201B50020C046C04602BD704730
:1003200070477047004870472806002070477546A0
:10033000FFF7F8FFAE46050069465346C008C00007
:10034000854618B020B5FFF70BFF60BC00274908B1
:10035000B6460026C0C5C0C5C0C5C0C5C0C5C0C55D
:10036000C0C5C0C5403D49008D46704710B5044624
:10037000C046C0462046FFF7E0FE10BD01491820E8
:10038000ABBEFEE72600020070B58C180578401C55
:100390006B075B0F01D10378401C2A1106D102784C
:1003A000401C03E00678401C0E70491C5B1EF9D10E
:1003B0002B0705D40023521E0DD40B70491CFAE7FD
:1003C0000378401CCB1A921C03E01D780D70491C69
:1003D0005B1C521EF9D5A142D8D3002070BD026823
:1003E0008A430260704701468868C007C00F012237
:1003F000504050407047014694204058022210401F
:1004000040087047014694204058C007C00F0122A1
:100410005040504070470000F8B506460D46286829
:10042000070D3046FFF7DFFF00284ED13046FFF7BB
:10043000E9FF002849D02868B16B032212059143D7
:100440000143B16300BF002434E0002C06D0012C2E
:100450000CD0022C12D0032C20D117E0E100281D73
:1004600042580121304600F028F918E0E100281D2B
:1004700042581649304600F020F910E0E100281DEE
:1004800042581349304600F018F908E0E100281DF1
:1004900042581049304600F010F900E000BF00BF9C
:1004A000E0002B1DC0184268E0001958304600F0EB
:1004B00041F9641CBC42C8DD304600F0F1F800BFD1
:1004C0003046FFF798FF0128FAD0F8BD021100006E
:1004D000032200000433000010B50420492109065E
:1004E00009680140814201D1012100E00021002979
:1004F0000BD00420492109060968814349221206CC
:10050000116000BF014801F0A1FE10BD00000020F5
:1005100070B505460C462068A9681F22D202914397
:100520000143A96000BF2846616800F0FCF8284636
:10053000A16800F09FF82069696801229202914346
:100540000143696000BF2846616900F09AF82846B7
:10055000A16900F09DF8E0696968012212039143E6
:100560000143696000BF2846216A00F0A0F870BD11
:10057000F8B506460D462868070D3046FFF733FFED
:1005800000283FD13046FFF73DFF00283AD02868C9
:10059000F16A0722120591430143F16200BF002472
:1005A00025E0062C0CDAE0002B1D1A58A0002018BC
:1005B00001235B0318430146304600F01BF90CE0B1
:1005C000E0002B1D1A58A01F8300C01801231B0335
:1005D00018430146304600F00DF9E0002B1DC0180D
:1005E0004268E0001958304600F0A4F8641CBC4290
:1005F000D7DD304600F054F800BF3046FFF7FBFE71
:100600000128FAD0F8BD70B505460C462068A968E7
:100610000F22520491430143A96000BF6068A9689A
:10062000022291430143A96000BF2846A16800F05F
:100630007AF82846E16800F01DF82846216900F0A4
:1006400020F82846616900F023F8A0696968012252
:10065000D20291430143696000BFE06969680722E3
:10066000520391430143696000BF2846216A00F0AC
:100670001EF870BD826801239B029A430A43826080
:10068000704742680123DB059A430A434260704782
:100690004268024B1A400A4342607047E0FD3FFF48
:1006A0009421095802221143942211507047C26DBF
:1006B00020239A430A43C2657047F7B504460D46A6
:1006C000032000051F220146400805E04900C3073A
:1006D000DB0F1943521E40080028F7D10F46974000
:1006E00039460F46384603F069F80146A06B0322ED
:1006F00012051040C840461CA06BE906C90EC91C73
:10070000891B8A008A181F21914088430299C906D3
:10071000C90EEA06D20ED21C921B9300D218914049
:100720000843A063FEBD4268FF2301339A430A4396
:1007300042607047F7B50C46172040011F22014662
:10074000400805E04900C307DB0F1943521E40086B
:100750000028F7D10E46964031460E46304603F04B
:100760002DF801462046172252011040C840810052
:1007700000980C300D181F2000051F22014640086C
:1007800005E04900C307DB0F1943521E400800284B
:10079000F7D10E46964031460E46304603F00EF82D
:1007A0001F2212052240C240072090402F68874335
:1007B0001F2000051F220146400805E04900C3072D
:1007C000DB0F1943521E40080028F7D10E46964011
:1007D00031460E46304602F0F1FF014620461F2208
:1007E00012051040C84002994907490F81400F4344
:1007F0002F60FEBDF7B507460C46032000031F22FD
:100800000146400805E04900C307DB0F1943521EAB
:1008100040080028F7D10E46964031460E46304635
:1008200002F0CCFF01462046032212031040C840CC
:10083000810038462C300D18E206D20E1F2191405F
:10084000286888430299C906C90EE206D20E914073
:1008500008432860FEBD816808221143816000BF03
:1008600000BF816808221140C9080029F8D100BFE3
:1008700000BF00BF816804221143816000BF00BF38
:1008800081680422114089080029F8D170470000CE
:1008900000B5ADB0242124A8FFF792FC442113A891
:1008A000FFF78EFC0F204004249002202590C00109
:1008B000269000202790289029902A902B902C9009
:1008C00024A949200006FFF79EFE0320000513908F
:1008D0003D481490062115913C4916910621179127
:1008E0003B49189106211991BD2189001A910621D1
:1008F0001B9113A949200006FFF73AFE24210AA8FC
:10090000FFF75EFC242101A8FFF75AFC03208003B7
:100910000A90FF2001300B9000200C900E900F9059
:100920001090119012900AA949200006FFF7F0FDDF
:1009300000200190274802900321039101A949203A
:100940000006FFF769FD00BF49200006806801210D
:10095000084349210906886000BF80204968014397
:1009600049221206516000BF04211046FFF737FDEF
:1009700049200006FFF76FFF00BF00BF49200006B7
:1009800080680421084080080028F6D100BF492073
:10099000000680680905084349210906886000BFF0
:1009A00000BF02204921090609680140814201D1A6
:1009B000012100E000210029F3D002214920000696
:1009C000FFF70DFD2DB000BD0E00C000230090000C
:1009D000270050011000200110B502F05BFA03203F
:1009E0004B490968C908C9000143494A116000BF61
:1009F00000BF48480068012108434649086000BF1D
:100A000000BF00BF4348006802210840400800289A
:100A1000F7D00320C0043F4949680722920491435C
:100A200001433C4A516000BF00BF104600680121ED
:100A3000090608431146086000BF00BF00BF3548E3
:100A40000068012149060840400E0028F6D0002029
:100A500030494968F022914301432E4A516000BF5A
:100A60001015114649680722120291430143294A91
:100A7000516000BF0020114649680722D20291430D
:100A80000143244A516000BF022011464968890889
:100A900089000143516000BF00BF00BF1D4840688E
:100AA0000C2108400828F8D180061A4949680246F6
:100AB00091430143174A516000BF174811464968E6
:100AC000C24311400143134A516000BF0F2000048C
:100AD00002F05AF90120000602F056F90120C00286
:100AE00002F062F9012002F057F9022002F054F9F5
:100AF0000120400302F058F9012002F055F90120CD
:100B0000800302F051F90120400402F045F910BDC4
:100B1000002002400010024000C0008000B58BB0F1
:100B2000282101A8FFF74CFB0020019002900390C0
:100B3000FF20013004904020059080010690F820AD
:100B40000790012008A90870002009900A9001A9C7
:100B5000064800F083FA00BF0448006801210843FA
:100B60000249086000BF0BB000BD00000402014054
:100B700000B585B014216846FFF722FB01200190E3
:100B80000290022003900020049004200090694607
:100B90004E4800F080FB0820009069464B4800F06A
:100BA0007AFB022001900020029002200390012095
:100BB0000490082000906946454800F06CFB012035
:100BC0000490022000906946414800F064FB012037
:100BD00004908020009069463C4800F05CFB0120B6
:100BE0000490042000906946394800F054FB01202D
:100BF000049000906946364800F04DFB01200490B7
:100C0000402000906946314800F045FB03200190E8
:100C10000020029002200390002004900120009008
:100C200069462A4800F037FB402000906946294871
:100C300000F031FB102000906946264800F02BFBA5
:100C4000202000906946224800F025FB02200090F9
:100C500069461E4800F01FFB2020009069461D4891
:100C600000F019FB4020009003200190002002902A
:100C70000490039069460920C00600F00CFB802018
:100C80000090032001900020029004900390694698
:100C90000920C00600F0FFFA002002900220039015
:100CA0000020049040200090032001906946092014
:100CB000C00600F0F0FA8020009003200190694601
:100CC0000920C00600F0E7FA05B000BD00080048A2
:100CD000000C00480004004810B500210C2001F071
:100CE00003FF0C2001F0BAFE01210D2001F0FCFEF3
:100CF0000D2001F0B3FE04211B2001F0F5FE1B20A6
:100D000001F0ACFE04211C2001F0EEFE1C2001F0DD
:100D1000A5FE0521881F01F0E7FE0020C04301F079
:100D20009DFE10BD00B587B01C216846FFF748FA4C
:100D30000120800300900420019000040290002014
:100D40000390049001204007059002200690694618
:100D5000064801F02DFF00BF044800680121084348
:100D60000249086000BF07B000BD00000403014055
:100D700010B540207F4909687022914301437D4AA4
:100D8000116000BF02201146886200BF7A48C86225
:100D900000BF0020086300BF70220121754802F0E7
:100DA000F3FA00220121734802F03AFB00220421E9
:100DB000704802F035FB702210216E4802F0E4FA10
:100DC000002210216B4802F02BFB002240216948D1
:100DD00002F026FB7022FF210131664802F0D4FAAE
:100DE0000022FF210131634802F01AFB0022012199
:100DF0008902604802F014FB6022012109045D4869
:100E000002F0C2FA6022012109055A4802F0BCFA38
:100E10005A485849896C090D09050143554A91649E
:100E200000BF57481146C86400BF0121104602F0B8
:100E300019FA10214F4802F015FAFF2101314D48EF
:100E400002F010FA012109044A4802F00BFA0121CC
:100E50000905484802F006FA072040054549496857
:100E60000F22120591430143424A516000BF901581
:100E70001146096803221202914301433D4A116061
:100E800000BF48201146496C090A09020143516418
:100E900000BF5014072109040022364B5B6C394C0B
:100EA000234004460C4314432343324C636400BF85
:100EB0002046002101220446603463181C689443D4
:100EC0001C6000BF00230215194602F01AFA2948D7
:100ED000002102220446603463181C6814431C601D
:100EE00000BF00BF806F012108432249886700BF0F
:100EF00000BF0846806F022108431E49886700BF73
:100F000000BF0846806F042108431A49886700BF64
:100F100000BF0846806F082108431649886700BF54
:100F200000BF0846406C510388431249486400BF23
:100F300011200004096A01430E4A116200BF00BF7C
:100F40001046406C0121C90388431146486400BF24
:100F500000BF08460068012108431146086000BF31
:100F60008021104602F079F90121024802F075F95A
:100F700010BD000000340140BF1200009F050000BA
:100F80003F0B0000FFDFF0EF7047000000BF194883
:100F9000406A012108431749486200BF00BF00BFF3
:100FA0001448406A0221084040080028F7D000BFDA
:100FB00011481249086000BF0220486000BF7D2030
:100FC0000001886000BF00BF00BF0C48C0688007F8
:100FD000800F002801D1012000E000200128F3D17A
:100FE00000BF07480549086000BF00BF054808600A
:100FF00000BF70470010024055550000003000400F
:10100000AAAA0000CCCC000070B504460D4600260C
:101010002E6B2068B04205D2022168688843801C8C
:10102000686006E06068B04203D9022168688843BE
:101030006860A068B04201D2A66803E0E068B042F0
:1010400000D9E668E368A268D11AF31A22695A4304
:101050001046FFF7B7F8E86470BD000010B54B68A4
:101060000A681A438B681A4303681F4C23401A43CB
:101070000260CB680A691A430368FF24F134A34372
:101080001A430260026807231B039A434B691A4301
:1010900002600A7F52000B6A1A43144B5B689B087C
:1010A0009B001A43114B5A60104A803A904208D173
:1010B0001A465268F8239A438B691A430B4B5A60BD
:1010C00009E00A4A52681F231B029A438B695B019D
:1010D0001A43064B5A60054A1268520852004B6A7E
:1010E0001A43024B1A6010BDFF7FFCFC80020140D6
:1010F00010B5044600BF1149C8680022CA6000BF8D
:1011000020656078022811D1207A4007C00F00289E
:101110000CD121460A4800F019F82146094800F090
:1011200015F82146084800F011F806E000200449AF
:101130008860044988600449886010BD200100204F
:101140004C04002058040020640400200A6D036849
:101150009A420BD38268521C826043689A420BD336
:1011600004238A689A43121D8A6005E08268002A77
:1011700002D08268521E8260704710B504468420F7
:10118000005900284CD02078030002F034FB0504FD
:101190001B26313C4700842109598A00211D8858AB
:1011A0000A21FFF70FF888210851842109598A0084
:1011B000211D88580A21FFF705F88C2001510220D3
:1011C00020702CE02078401CC1B22170942000597E
:1011D000814201D90220207021E02078401CC1B258
:1011E000217098200059814201D90320207016E017
:1011F0002078401CC1B2217094200059814201D94D
:10120000042020700BE02078401CC1B221709C208B
:101210000059814201D90020207000E000BF04E0A5
:101220000020207000219020015110BD70B50446AF
:101230000D4DA06800280FD000200AE00122824056
:10124000A1681140002903D0411C8422515102E0C1
:10125000401C2028F2DB02E0002184204151284676
:10126000FFF78BFF70BD0000880500200268C16891
:1012700051430A02FF230133C168591A8368594355
:101280005118090A816081680912416070470A0299
:1012900082604160704770B505460C461023606857
:1012A000984302462846216800F050F86268110908
:1012B00020686A68824303464B431A436A6000BF52
:1012C00028462269216800F00BF82846E268216868
:1012D00000F072F82846A268216800F0A3F870BDFB
:1012E000F7B504460D4628461F220146400805E092
:1012F0004900C307DB0F1943521E40080028F7D1ED
:101300000E46964031460E46304602F057FA8100AE
:101310000F208840276A874328461F22014640083D
:1013200005E04900C307DB0F1943521E400800289F
:10133000F7D10E46964031460E46304602F03EFA50
:1013400081000298884007432762FEBDF7B5044636
:101350000D4628461F220146400805E04900C30704
:10136000DB0F1943521E40080028F7D10E46964065
:1013700031460E46304602F021FA410003208840F3
:101380002768874328461F220146400805E0490098
:10139000C307DB0F1943521E40080028F7D10E4641
:1013A000964031460E46304602F008FA4100029857
:1013B000884007432760FEBDF7B504460D46284622
:1013C0001F220146400805E04900C307DB0F19430F
:1013D000521E40080028F7D10E46964031460E4670
:1013E000304602F0EBF9410003208840A7688743AC
:1013F00028461F220146400805E04900C307DB0FCD
:101400001943521E40080028F7D10E469640314637
:101410000E46304602F0D2F9410002988840074358
:10142000A760FEBDF7B504460D4628461F220146BB
:10143000400805E04900C307DB0F1943521E40086E
:101440000028F7D10E46964031460E46304602F04F
:10145000B5F9410003208840E768874328461F22EA
:101460000146400805E04900C307DB0F1943521E3F
:1014700040080028F7D10E46964031460E463046C9
:1014800002F09CF94100029888400743E760FEBDE6
:1014900042694A404261704710B5002006494863DE
:1014A0008863C863FF211231034801F0CEFE03496F
:1014B000014801F0CAFE10BD0034014044040000A0
:1014C00010B586B00446142101A8FEF779FE02206B
:1014D0000290002003900220049001200590082033
:1014E000019001A91C48FFF7D6FE012005900220BB
:1014F000019001A91848FFF7CEFE01200590802039
:10150000019001A91548FFF7C6FE012005900420AF
:10151000019001A91048FFF7BEFE0120059001903F
:1015200001A90D48FFF7B7FE01200590402001906A
:1015300001A90A48FFF7AFFE611E094801F0DFFE6E
:1015400048200749496C090A09020143044A5164C9
:1015500000BF06B010BD0000000C004800080048A5
:101560000034014010B50446064844638463C463F4
:10157000FF21123101F069FE0349024801F069FEC2
:1015800010BD00000034014044040000024B5863C9
:101590009963DA63704700000034014010B50749D1
:1015A000074801F052FE00BF0548406C0121C90305
:1015B00088430349486400BF10BD00005505000082
:1015C0000034014010B50749074801F042FE00BF52
:1015D0000548406C0121C90308430349486400BF22
:1015E00010BD00005505000000340140028891053F
:1015F000890D03239B0202681A40002A08D00123A8
:101600009B02D21A0ED0D21A17D0D21A2CD120E0B7
:101610008A00174B9A588260164A521A92009A58BA
:10162000426022E0134A521A9200114B9A5882608B
:101630008A009A585242426017E08A000C4B9A582E
:10164000524282600B4A521A92009A5852424260A9
:101650000BE0084A521A9200054B9A585242826097
:101660008A009A58426000E000BF00BF7047000047
:1016700080380008FF03000081694162026AC16985
:10168000891A024A51430913816270473D090000DB
:1016900010B504460020206060600021204608301C
:1016A00001F06AFB00212046303001F065FB10BDDF
:1016B00070B505460C46284600F09AF9696F686CCB
:1016C00048438013A864A96CA162A86C4142E162FE
:1016D0002068A060E96AE1602046083001F00CFB58
:1016E000A96C2165A86C4142616560682063296B23
:1016F00061632046303001F0FFFA606AE863E06C15
:101700002864284600F061F92146284600F082FA54
:1017100070BD70B505460E4614463046FFF7ACFF67
:10172000A06D716A4843716B8903081A6062A06DED
:10173000B16A4843B16B8903081AA062686B716A89
:1017400048438013216D8913081AE062686BB16AFF
:1017500048438013616D8913081A2063E06A40438F
:10176000216B4943401880136063686C616B401AB9
:10177000E16A4843A063686C616B401A216B48437F
:10178000E063A86A616A49124843216C40182064EA
:10179000A86AA16A49124843616C4018606401213B
:1017A0008907206C884201DA206C01E00120800763
:1017B00003218907884208DD4942206C884201DA0A
:1017C000206C04E00120800701E0032080072064F2
:1017D00001218907606C884201DA606C01E0012018
:1017E000800703218907884208DD4942606C8842EE
:1017F00001DA606C04E00120800701E0032080072B
:101800006064A86AA16B89124843A16C4018A06467
:10181000A86AE16B89124843E16C4018E064012139
:101820008907A06C884201DAA06C01E001208007E2
:1018300003218907884208DD4942A06C884201DA09
:10184000A06C04E00120800701E003208007A06471
:1018500001218907E06C884201DAE06C01E0012097
:10186000800703218907884208DD4942E06C8842ED
:1018700001DAE06C04E00120800701E0032080072A
:10188000E064A16C8912E06D48430011216C40189E
:1018900000112065E16C8912E06D48430011616C14
:1018A000401800116065686B716A48438013216DB0
:1018B0008913081AE062686BB16A48438013616D4E
:1018C0008913081A20636168206B484380132066DF
:1018D000A168E06A4843811361662046603001F0E8
:1018E0000BFAE06F206120461030FFF7BFFCA86ABA
:1018F00021694843216A4018206204E00121090758
:10190000206A401A206201210907206A8842F5D224
:1019100004E001210907206A40182062206A00289B
:10192000F7DB206A001420602046FFF75FFE70BDE1
:1019300010B5044600202060206200216161A16191
:101940006062A062E06220636063A063E063206481
:101950006064A064E064206560652046603001F04A
:101960000BFA10BD70B505460C46A86A216A4843BB
:10197000A16B4018A06304E001210907A06B401A85
:10198000A06301210907A06B8842F5D204E0012180
:101990000907A06B4018A063A06B0028F7DBA06BC1
:1019A000001420602046FFF721FE70BD10B50446EC
:1019B000002020606064E063002140200155204643
:1019C0001030216901F01FFA10BD4268C16B51430C
:1019D0008368026C5A43891A891341638268C16B18
:1019E00051434368026C5A438918891381637047D5
:1019F0004268416A51438368826A5A43891889134D
:101A0000C162416A4942826851434368826A5A43CB
:101A10008918891301637047F8B505460E461446C8
:101A20003046FFF729FEE86CE16A484380134142E3
:101A3000286D226B50438013226950438013091A8A
:101A4000A86C726B504380120918A86C626B5043EB
:101A50008012081AA96A4843616A40186062E86CFB
:101A6000216B484380134142286DE26A5043801342
:101A70002269504380130918A86CB26B504380123E
:101A80000918A86CA26B50438012081AA96A48432F
:101A9000A16A4018A06201218907606A884201DAC0
:101AA000606A01E00120800703218907884208DD80
:101AB0004942606A884201DA606A04E001208007D6
:101AC00001E003208007606201218907A06A884243
:101AD00001DAA06A01E0012080070321890788421A
:101AE00008DD4942A06A884201DAA06A04E00120C8
:101AF000800701E003208007A062606A8013E06233
:101B0000A06A80132063E06A716A471A206BB16A89
:101B1000401A0090E06BB84201DD384600E0E06B0F
:101B2000E16B4942884206DDE06BB84201DD384690
:101B300003E0E06B01E0E06B40426063E16B009822
:101B4000814201DD009800E0E06BE16B4942884290
:101B500007DDE16B0098814201DD009803E0E06B56
:101B600001E0E06B4042A063206C78438013616B1E
:101B700008186063A26B206C00994843801310180A
:101B8000A0636168606B4843801340426064A16851
:101B9000A06B48438113A1642046443001F0ACF8A7
:101BA000206E206120461030FFF760FBA86A216993
:101BB0004843216A4018206204E001210907206A95
:101BC000401A206201210907206A8842F5D204E008
:101BD00001210907206A40182062206A0028F7DBEB
:101BE000206A001420602046FFF700FDF8BD10B504
:101BF000044600202060206200216161A1616062D2
:101C0000A062E06220636063A0632046443001F07C
:101C1000B3F810BDF0B58DB004460D4600BF00BF4F
:101C200000BF00BF00BF00260027002007900690DD
:101C300005900490019002900390626B1003616C18
:101C4000FEF7CAFA0C90A26B1003616CFEF7C4FA9F
:101C50000B90FE490B98484300130A900C984100E2
:101C600041180A98081A401009900C988100411AEE
:101C70000A98081A40100890002020740A9800283A
:101C800002DD207C401C20740998002802DD207CA5
:101C9000801C20740898002802DD207C001D207420
:101CA000207C030001F0A7FD071D081805100D1585
:101CB0001D00099E0A9F15E0099846420898474270
:101CC00010E00A9E089F0DE00A9846420998474294
:101CD00008E0089E099F05E0089846420A98474296
:101CE00000E000BF00BFF019079084200159079859
:101CF00081420ADA84210959714308460799FEF79F
:101D00006BFA064684200059871B88200059801BE7
:101D1000C01B401001900198801902900298C019D0
:101D20000390A06FB04209DDA06FB84206DDA06F3E
:101D3000801B0690A06F381A04901BE0A06FB04281
:101D40000BDDA06FB84208DCA06F801B401006902E
:101D5000A06F4042401005900CE0A06FB04209DC3B
:101D6000A06FB84206DDA06F40100590A06F381A32
:101D70004010049001990698081AE16F40182867EE
:101D800002990598091A8020005908186867207C74
:101D9000030001F030FD07FD50FC05E79BFBFD0053
:101DA0007000C019AA4948430013616C48430013EE
:101DB0006063A84878430013616C48430013A06334
:101DC000207CA549085C800001A9095806980818DC
:101DD000A865217CA0480830405C800001A9095812
:101DE00005980818E865217C9B481030405C80000D
:101DF00001A90958049808182866207C9649085CAF
:101E0000800001A909580698081A6866217C924842
:101E10000830405C800001A909580598081AA86696
:101E2000217C8D481030405C800001A9095804983D
:101E3000081AE86688E1B81B854948430013616CBD
:101E4000484300136063F019824948430013616CF2
:101E500048430013A063207C7F49085C800001A9EF
:101E6000095805980818A865217C7B480830405C13
:101E7000800001A9095806980818E865217C764871
:101E80001030405C800001A90958049808182866A1
:101E9000207C7149085C800001A909580598081A3E
:101EA0006866217C6C480830405C800001A90958B4
:101EB0000698081AA866217C67481030405C8000AC
:101EC00001A909580498081AE8663DE178004042E3
:101ED000801B5F4948430013616C484300136063F3
:101EE0005C4870430013616C48430013A063207C7E
:101EF0005949085C800001A9095804980818A86588
:101F0000217C55480830405C800001A9095806989A
:101F10000818E865217C50481030405C800001A919
:101F20000958059808182866207C4B49085C8000F1
:101F300001A909580498081A6866217C46480830A7
:101F4000405C800001A909580698081AA866217CFF
:101F500041481030405C800001A909580598081AD2
:101F6000E866F1E078004042801B3949484300139D
:101F7000616C48430013606336487043001340426D
:101F8000616C48430013A063207C02E03BE08EE0DC
:101F9000D9E03149085C800001A909580498081863
:101FA000A865217C2C480830405C800001A90958B4
:101FB00005980818E865217C27481030405C8000AF
:101FC00001A90958069808182866207C2249085C4F
:101FD000800001A909580498081A6866217C1E48E7
:101FE0000830405C800001A909580598081AA866C5
:101FF000217C19481030405C800001A909580698DE
:10200000081AE866A0E0B81B114948430013616C48
:102010004843001360637042C01B0E4948430013DD
:10202000616C48430013A063207C0B49085C80006E
:1020300001A9095805980818A865217C06480830A8
:10204000405C800001A90958049807E0B71B000014
:10205000550500003D090000CA4800080818E86559
:10206000217C3B48405C800001A90958069808186B
:102070002866207C36491039085C800001A909587F
:102080000598081A6866217C31480838405C800051
:1020900001A909580498081AA866217C2C48405CBC
:1020A000800001A909580698081AE8664CE07000FB
:1020B000C019284948430013616C4843001360630A
:1020C0002548784300134042616C48430013A063E5
:1020D000207C1F491039085C800001A90958069826
:1020E0000818A865217C1A480838405C800001A9BE
:1020F000095804980818E865217C1548405C800060
:1021000001A90958059808182866207C104910393B
:10211000085C800001A909580698081A6866217CA5
:102120000B480838405C800001A909580498081A37
:10213000A866217C0648405C800001A909580598E2
:10214000081AE86600E000BF00BF0DB0F0BD000057
:10215000DA480008550500003D090000026FC16C17
:10216000891AC164026F016D521A0265C16C4A423C
:10217000016D521A4265017C0C4A515C8A0001468D
:102180004C3189588161027C08490831895C8A0098
:1021900001464C318958C161027C04491031895C87
:1021A0008A0001464C31895801627047B2480008E4
:1021B00010B50446002020606060A060E06020460A
:1021C0003830A16B00F01FFE002120464C3000F09B
:1021D0001AFE00212046603000F015FE0021204646
:1021E000103000F0C9FD10BD10B50446616F2068C5
:1021F000884201DA206800E0606FA16F884207DD45
:10220000616F2068884201DA206802E0606F00E0B8
:10221000A06F60662046603000F0CEFD206F206128
:10222000616861612046103000F066FDE06AE060A0
:1022300010BD10B504460021204600F09DFD10BDE4
:1022400049210906CA6BF8210A507047017805290F
:1022500014D1017B002907D149210906CA6BF0215D
:102260000A500121017309E0017B012906D14921AE
:102270000906CA6BEC210A50032101737047000064
:1022800010B50446002020730021EC200151F020FD
:102290000151F4200151F820015100206073952074
:1022A00080002018FFF7C5FF5120C0002018FFF75D
:1022B0007DFB5B20C0002018FFF73AFB1B2040018C
:1022C0002018FFF794FC2046FF303130FFF770FFF5
:1022D0002046FF30DD30FFF7DBF904499320800012
:1022E00001510349001D015110BD0000CC04000044
:1022F0009909000010B50446FFF7CEF810BD10B5DF
:102300000446A068002803D0606840084000606070
:102310002078030001F06FFA07053A516D849BFEA7
:10232000FD002079C007C00F002828D00421606874
:102330008843001D6060207DC007C00F00280AD0C0
:102340002046FFF79DFF4B208001FFF7B9F8FFF70C
:1023500039F905202070207D8007C00F002814D097
:102360002046FFF78DFF4B208001FFF7A9F8A068FA
:1023700040084000401CA0600020207005E00021C3
:10238000616104216068884360609CE12079C00736
:10239000C00F00280ED0207D4007C00F002801D0BC
:1023A00005202070207D0007C00F002804D00220E7
:1023B000207001E00020207085E12079C007C00F67
:1023C000002813D0207DC006C00F002801D00320B4
:1023D0002070207D8006C00F002809D00421A0684D
:1023E0008843001DA0600020207001E000202070C4
:1023F00069E12079C007C00F00280ED0207D40067B
:10240000C00F002801D004202070207D0006C00FDE
:10241000002804D00020207001E00020207052E14C
:102420002079C007C00F00280ED0A08AC005C00FB9
:10243000002801D005202070A08A8005C00F002848
:1024400004D00020207001E0002020703BE15B20E0
:10245000C00020184169FF20353001512079C007A4
:10246000C00F00287DD0607B002806D0012879D0DD
:10247000022878D0032877D10AE15120C000201823
:10248000103000F099FC2046FF307D3000F094FCC5
:10249000FF2069300159FF20DD300151FF208D30D0
:1024A0000159FF20E13001515120C0002018406C3B
:1024B0000521C90161188968401A09D50520C001A4
:1024C000201880685121C9006118496C401A08E041
:1024D0005120C0002018406C0521C901611889688D
:1024E000401A5121C9006118896C01229202891891
:1024F000884218DA5120C0002018C06B401C5121BE
:10250000C9006118C8635121C9006118C96C8842AB
:1025100001E0D7E0D5E00BD901215120C0002018FF
:102520004030017004E000205121C9006118C863E7
:102530005120C000201840300078012840D1FF20F1
:1025400035300159FF20AD300059814238DD072078
:10255000C0012018C16C491C0720C0012018C164AB
:1025600003E0A0E032E083E095E0FF20B1300059C5
:1025700081422AD900200721C9016118C864FF20BF
:10258000D1300159FF2099300151FF20D13000593D
:102590004142FF209D300151FF2035300059411D3F
:1025A0002046FF30913000F02EFCFF20E130015931
:1025B0002046FF30413000F0DFFB0120607304E073
:1025C00000200721C9016118C86465E02046FF307A
:1025D000693000F0F1FB2046FF303130FFF704FE98
:1025E000FF2079300159FF20DD300151FF203D30BF
:1025F0000159FF20E13001515120C0002018406BEB
:1026000000282FD1FF20DD30005900282AD1FF20DB
:1026100035300159FF20B5300059814222DD0720B5
:10262000C0012018C16C491C0720C0012018C164DA
:10263000FF20B9300059814219D900200721C90172
:102640006118C864FF20D5300159FF20993001512D
:10265000FF20D53000594142FF209D30015102201A
:10266000607304E000200721C9016118C86413E009
:102670002046FF303130FFF7B7FD0021FF20DD306D
:102680000151FF203D300159FF20E130015103E0AD
:102690000220607300E000BF00BF02216068884331
:1026A000801C60600CE000200721C9016118C8642B
:1026B0000221606888436060FEF7EEFE0020207013
:1026C00001E000E000BF00BF10BD000070B504468F
:1026D0002078030001F08FF807053551617172EC25
:1026E000EB002079C007C00F002827D020794007D1
:1026F000C00F002824D02046FFF7A2FD207DC00790
:10270000C00F00281CD1207D8007C00F002817D1E2
:102710002146A0312046103000F06CF9207DC00722
:10272000C00F00280CD0FF201130005901034018C1
:102730004000810AFF201130015101E0FEF7ACFE9C
:1027400054E12046FFF77CFD207D4007C00F0028A4
:1027500010D1207D0007C00F00280BD100BF4920F9
:10276000000680680121490508434921090688605F
:1027700000BF00BFFEF790FE38E12046FFF760FD86
:10278000207DC006C00F002804D1207D8006C00F28
:10279000002801D0FEF780FE28E12046FFF750FD1B
:1027A000207D4006C00F002804D1207D0006C00F08
:1027B000002801D0FEF770FE18E117E1207B032806
:1027C00074D1EC200059010340184000810AEC202C
:1027D0000151F0200059010340184000810AF02007
:1027E00001512046A030FFF7B9FC5B20C000221841
:1027F0002146A03120464C30FEF78BFF1B204001C4
:1028000022182146A03120464C30FFF705F92079E7
:102810008007C00F00287DD0607B002806D00128EB
:1028200030D002287DD0032876D184E00520C00175
:102830002018806D5121C900611848645120C000E2
:10284000211820464C30FFF78DF85120C000201889
:10285000406C0522D201A2189268811A5120C00052
:102860002018243000F0CFFA204680300521C9011D
:1028700061180D69CB688A684969856243620262A2
:10288000C16263E05120C0002018243000F094FAA7
:102890000520C0012018816D5120C0002018406B18
:1028A000081A0521C901611888600DE07BE09CE0F1
:1028B00097E00520C0012018806801210903401A13
:1028C0000521C901611888600520C00120188068B1
:1028D000012109038842ECDA0AE00520C001201832
:1028E00080680121090340180521C9016118886029
:1028F0000520C001201880680028EEDB5120C000B0
:102900002018FEF773FE204680300521C9016518A6
:10291000083502E022E004E017E02ECD20302EC082
:1029200014E0204680300521C901651858352ECDA8
:1029300020302EC00AE0204680300521C9016518EC
:1029400058352ECD20302EC000E000BF00BF2146FC
:10295000FF31DD312046A030FEF7AAFE4923DB001F
:102960001B594B25AD016B431A0B91239B001B593F
:102970006B43190B09239B011B596B43180BFEF783
:1029800005FE9322920012592B465A43100B252222
:10299000120112595A43110B154A9060D16000BFC1
:1029A0000020207312E08F239B001B594B25AD01A3
:1029B0006B431A0B4723DB001B596B43190B8D2309
:1029C0009B001B596B43180BFEF7E0FD2079800735
:1029D000C00F002802D0FEF7F5FD01E0FEF7DEFD96
:1029E00004E00020FEF7BEFD00E000BF00BF70BDA8
:1029F0004034014070B504460D46E96EA86D0818D4
:102A0000E866A06B401C2821A063095D88421AD1AA
:102A1000A16BE86EFDF7D6FB2867286F616A8842D4
:102A200009D9286F216A884205D2606840084000B1
:102A3000401C606004E0022160688843801C606084
:102A40000020A063E86670BD03484068400840006D
:102A5000014948607047000000000020C206D20E05
:102A600001219140014A11607047000000E100E03F
:102A700010B5002819DA1A4A03071B0F083B9B08F8
:102A80009B00D2588307DC0EFF23A3409A438B0799
:102A90001B0E8407E40EA3401A43114B0407240FB6
:102AA000083CA408A4001A5118E00E4A03231B0294
:102AB000D21883089B00D2588307DC0EFF23A34063
:102AC0009A438B071B0E8407E40EA3401A43054B61
:102AD000032424021B198408A4001A5110BD00000D
:102AE0001CED00E000E100E010B5002819DA1A4AF8
:102AF00003071B0F083B9B089B00D2588307DC0E83
:102B0000FF23A3409A438B071B0E8407E40EA340C8
:102B10001A43114B0407240F083CA408A4001A51BF
:102B200018E00E4A03231B02D21883089B00D258D8
:102B30008307DC0EFF23A3409A438B071B0E8407F9
:102B4000E40EA3401A43054B032424021B198408F6
:102B5000A4001A5110BD00001CED00E000E100E0EF
:102B6000C16802229143C1607047C16849084900A9
:102B7000C1607047C16889088900491CC1607047FD
:102B800004498968FF22013291430143014A91605F
:102B90007047000000030140044989680122520780
:102BA00091430143014A91607047000000030140D6
:102BB00070B505460C4600BF2868C00F002849D1F3
:102BC0006068042847D1A069002804D001280DD0EE
:102BD000022828D11CE000BFE86880088000801C23
:102BE000E86000BF2846FFF7C0FF1CE02846FFF75B
:102BF000B7FF2846FFF7BEFF0820E9680822914387
:102C00000143E96000BF0021284600F063F80AE0B4
:102C10002846FFF7A5FF2846FFF7ACFF042128460A
:102C200000F058F800BF00BF616820680843A16841
:102C300008432968244A11400843286023488542F4
:102C400041D1E06800F04CF82069FFF799FF606916
:102C5000FFF7A2FF37E060680C281AD12846FFF77B
:102C60007FFF2846FFF781FFA16860680843296855
:102C7000174A1140084328601448854223D1E06870
:102C800000F02EF82069FFF77BFF6069FFF784FFF3
:102C900019E02846FFF764FF2846FFF766FFA168A2
:102CA0006068084329680A4A1140084328600748B9
:102CB000854208D1E06800F013F82069FFF760FF53
:102CC0006069FFF769FF70BDF33FF9FF080301403A
:102CD000F3FFF9FFC26804239A430A43C2607047B6
:102CE000044989680122520291430143014A9160DB
:102CF000704700000003014043680268D11AC268AF
:102D00004A4383699A188261036A9B0382699A42E3
:102D100001DA826901E0026A9203436A9B039A42E4
:102D200009DD036A9B0382699A4201DA826904E041
:102D3000026A920301E0426A9203826182699213FD
:102D4000426182684A4392134369D218C261036A9E
:102D5000C2699A4201DAC26900E0026A436A9A4291
:102D600007DD036AC2699A4201DAC26902E0026AB7
:102D700000E0426AC2617047002202604260416125
:102D80008A038261C1617047024949690143014A6E
:102D900051617047001002400249C9690143014A6C
:102DA000D161704700100240024989690143014A1C
:102DB00091617047001002400269416891420DDD47
:102DC0008268016989184268914204DA826801695F
:102DD0008918016116E04168016113E002694168E8
:102DE00091420DDAC268016989184268914204DD96
:102DF00082680169891A016104E04168016101E0AA
:102E000041680161704701617047000010B50246DA
:102E10001D481E4900BF1E4B5B6893655378002B0D
:102E20002ED0137A1B07DB0F002B0FD1936D046894
:102E3000A34208D383685B1C83604468A34207D322
:102E40000023836004E00023836001E000238360AB
:102E5000137ADB06DB0F002B0FD1936D0C68A342B6
:102E600008D88B685B1C8B604C68A3420BD3002393
:102E70008B6008E000238B6005E000238B6002E09C
:102E8000002383608B6010BD58050020640500207E
:102E90003001002010B50C4C601E0C49884201D94D
:102EA00001200CE0601E0A4948610321081FFFF75A
:102EB000DFFD002006498861072008610020002806
:102EC00001D000BFFEE710BD80320200FFFFFF000F
:102ED00000E000E010B5024800F076F910BD0000F7
:102EE000D0030020244800680121084322490860DB
:102EF00008464068214908401F4948600846006864
:102F00001F4908401C4908600846006801218904DF
:102F1000884319490860084640687F2109048843AE
:102F2000154948609F200004886001200006496917
:102F30000143114A516100BF12480069032189040D
:102F40000843104908610F48403040690221084396
:102F50000C494031486100BF0A48403040690221B5
:102F600008400228F8D0C805034949698143024A4C
:102F7000516100BF70470000001002400000FFF8E0
:102F8000FFFFF6FE4000004910B504460E48C06A37
:102F9000E0600D48006BE0610B48406BE0620A485E
:102FA000806BE06320460C30FEF760F920461C3051
:102FB000FEF75CF920462C30FEF758F920463C30ED
:102FC000FEF754F910BD00004000004910B504465A
:102FD0002046FFF7D9FF21463B48FEF715F8206948
:102FE0000103411849008A0A38494A6400BFE06C6D
:102FF000032109034143890B012212038A18334933
:1030000060310A6300BF00BFC81FF938007A00288A
:1030100004D0A06840084000401CA06060780028F0
:1030200006D0012812D002282BD0032849D13AE03B
:10303000606E401C6066216E884206D30020606688
:10304000204600F045F8012060703BE0A0680028B1
:1030500004D0FFF7F9FC0320607011E020798007AD
:10306000C00F00280CD000BF1848A03840684008A6
:103070004000401C1549A039486000BF0220607024
:1030800020E0A068002804D0FFF7DEFC0320607079
:1030900008E020798007C00F002803D1FFF7D4FC97
:1030A000012060700EE020798007C00F002807D152
:1030B000A06000BF0549A039886000BF0120607092
:1030C00000E000BF00BF10BD38040020A0000020B9
:1030D00010B504460C48C16A20460C30FEF7D7F8FC
:1030E0000948016B20461C30FEF7D1F80648416BB9
:1030F00020462C30FEF7CBF80348816B20463C304D
:10310000FEF7C5F810BD00004000004910B50446A8
:103110002079C007C00F00284DD02078401C2070B7
:103120002548FFF753FF2548FFF7E9F82078C00747
:10313000C00F00283BD1207802210840022836D059
:10314000207804210840042831D020780821084044
:1031500008282CD0207810210840102803D11648C8
:1031600000F0E8FA23E0207820210840202803D14D
:103170001148FDF7BDFF1AE02078402108404028A3
:1031800003D10D48FFF742FE11E02078802108406E
:10319000802806D1084800F083F90748FEF746F872
:1031A00005E000BF06480749086000BF00BF60682F
:1031B00040084000606010BDD003002000000020E7
:1031C000AAAA0000003000400179C907C90F0029F0
:1031D00005D1416849084900491C416004E00222C8
:1031E00081689143891C81607047000010B580217F
:1031F000114800F07BF8002807D080210E4800F02D
:1032000021F80E48FFF776F814E001210A4800F093
:103210006DF800280ED008210948FEF739F9012180
:10322000054800F00FF80548FFF750FA0821044858
:10323000FEF72EF910BD0000003401400000002010
:1032400000080048CA4302617047026A8A4302626A
:103250007047026A0A4302627047C2680A43C2604A
:103260007047000070B50246012901D100242AE010
:10327000042901D1012426E0102901D1022422E0F1
:10328000402901D103241EE0FF240134A14201D1D1
:10329000042418E00124A402A14201D1052412E073
:1032A00001242403A14201D106240CE00124A4033B
:1032B000A14201D1072406E001242404A14201D146
:1032C000082400E009242346064CE55C1446183423
:1032D00028190468044DEE5C0825B5402C430460B1
:1032E00070BD00004C3800085638000802461069CE
:1032F0000840884201D1012070470020FCE7C162EC
:103300007047FFB581B006461446304660300299DA
:103310004018009020461F220146400805E0490061
:10332000C307DB0F1943521E40080028F7D10D4692
:10333000954029460D46284600F040FAC106C90EC0
:1033400001204002884000990F68874320461F22D1
:103350000146400805E04900C307DB0F1943521E30
:1033600040080028F7D10D46954029460D462846CD
:1033700000F024FAC106C90E04988840074300985B
:10338000076005B0F0BD0000F0B503461446012902
:1033900001D100252AE0042901D1012526E01029C8
:1033A00001D1022522E0402901D103251EE0FF259D
:1033B0000135A94201D1042518E00125AD02A94239
:1033C00001D1052512E001252D03A94201D10625D1
:1033D0000CE00125AD03A94201D1072506E0012536
:1033E0002D04A94201D1082500E009252846094DF0
:1033F0002E5C1D46183572191568074E375C074E4E
:10340000BE40B543044E365C2746B7403D43156089
:10341000F0BD00004C380008563800087300010069
:1034200070B5012901D100242AE0042901D1012429
:1034300026E0102901D1022422E0402901D10324F1
:103440001EE0FF240134A14201D1042418E001242C
:10345000A402A14201D1052412E001242403A142C7
:1034600001D106240CE00124A403A14201D10724C8
:1034700006E001242404A14201D1082400E009242B
:103480002346046A054DEE5C0225B540AC43034D6E
:10349000EE5C1546B5402C43046270BD6A380008E6
:1034A00010B502461C481D49136AD3655378002B9A
:1034B0002ED0137A1B06DB0F002B0FD1D36D0468BF
:1034C000A34208D383685B1C83604468A34207D38C
:1034D0000023836004E00023836001E00023836015
:1034E0001389DB05DB0F002B0FD1D36D0C68A342D2
:1034F00008D88B685B1C8B604C68A3420BD30023FD
:103500008B6008E000238B6005E000238B6002E005
:10351000002383608B6010BD700500207C050020B7
:1035200010B50E490E4800F090F8012806D10B495D
:103530000B4800F039F800F0B1F80DE007496031B0
:10354000074800F082F8012806D1044920310448D8
:1035500000F02AF800F0C2F810BD000020000010B2
:103560000038014010B50E490E4800F06EF80128F1
:1035700006D10B490B4800F017F800F09FF80DE05A
:1035800007492031074800F060F8012806D10449B6
:103590002031044800F008F800F0B6F810BD000033
:1035A000200000100044004008B5244A914201D197
:1035B000012200E00022214B5B1C994201D1012332
:1035C00000E000231A431D4BDB1C994201D101236B
:1035D00000E000231A43194BDB1D994201D101235E
:1035E00000E000231A43154B0F33994201D1012308
:1035F00000E000231A43002A06D00268009200BFB0
:103600004268009200BF17E0012212070A4001231E
:103610001B079A4204D10A011209D24302600BE04F
:10362000012252070A4001235B079A4204D1C26873
:10363000CB00DB089A43C26008BD00000100001007
:10364000C16808229143C16070470246012000070B
:10365000084001231B0798420BD110680B011B097E
:1036600018400B011B09984201D10120704700202E
:10367000FCE701204007084001235B0798420BD17B
:10368000D068CB00DB081840CB00DB08984201D1A2
:103690000120EBE70020E9E70020E7E705480649BD
:1036A0004968CAB2436C591C416401460831CA5486
:1036B0007047000088040020003801400548064992
:1036C0004968CAB2436C591C416401460831CA5466
:1036D00070470000F00400200044004010B5084C82
:1036E000206D401C214626312065085C0549486054
:1036F000A16C206D884202D10248FFF7A1FF10BDE6
:10370000880400200038014010B5084C206D401C92
:10371000214626312065085C05494860A16C206D72
:10372000884202D10248FFF78BFF10BDF004002051
:103730000038014010B502461E481F4913691C039A
:103740001B195B009B0A53655378002B2ED0137A0C
:103750009B06DB0F002B0FD1536D0468A34208D3E7
:1037600083685B1C83604468A34207D300238360A3
:1037700004E00023836001E000238360137A5B068A
:10378000DB0F002B0FD1536D0C68A34208D88B6858
:103790005B1C8B604C68A3420BD300238B6008E05A
:1037A00000238B6005E000238B6002E00023836030
:1037B0008B6010BD700400207C0400200246202392
:1037C000110C002901D0103B0A46110A002901D032
:1037D000083B0A461109002901D01B1F0A4691081F
:1037E000002901D09B1E0A465108002901D0981ECD
:1037F0007047981AFCE730B47446641E2578641C40
:10380000AB4204D3635D5B00E31830BC18471D4630
:10381000F8E7000072B6FDF7DFF8FDF7A9F9FDF74C
:1038200037F8FDF7A5FAFDF77DFAFDF777F9FDF713
:10383000ABFBFDF751FAFDF7A9FB62B600BF0248EA
:10384000FFF764FCFBE70000D0030020000000004D
:1038500004040404383800000800000008000008D0
:103860000000080000000800000000020406080A2A
:103870000C0E10140001020304050607080A0000DC
:103880000000000019000000320000004B000000A2
:10389000640000007D00000096000000AF00000002
:1038A000C9000000E2000000FB000000140100005D
:1038B0002D010000460100005F01000078010000BA
:1038C00092010000AB010000C4010000DD01000016
:1038D000F60100000F020000280200004102000073
:1038E0005B020000740200008D020000A6020000CE
:1038F000BF020000D8020000F10200000A0300002D
:10390000230300003D030000560300006F03000086
:1039100088030000A1030000BA030000D3030000E5
:10392000EC030000050400001E0400003704000042
:10393000510400006A040000830400009C0400009D
:10394000B5040000CE040000E704000000050000FC
:1039500019050000320500004B0500006405000059
:103960007D05000096050000AF050000C8050000B9
:10397000E1050000FA050000130600002C06000017
:10398000450600005E060000770600009006000075
:10399000A9060000C2060000DB060000F4060000D5
:1039A0000D070000260700003F0700005807000031
:1039B000710700008A070000A3070000BC07000091
:1039C000D5070000EE0700000708000020080000EF
:1039D00039080000520800006B080000840800004D
:1039E0009C080000B5080000CE080000E7080000B1
:1039F0000009000019090000320900004B0900000D
:103A0000640900007C09000095090000AE0900006F
:103A1000C7090000E0090000F9090000110A0000D0
:103A20002A0A0000430A00005C0A0000750A000030
:103A30008D0A0000A60A0000BF0A0000D80A000094
:103A4000F10A0000090B0000220B00003B0B0000F4
:103A5000540B00006C0B0000850B00009E0B000057
:103A6000B60B0000CF0B0000E80B0000010C0000BB
:103A7000190C0000320C00004B0C0000630C00001D
:103A80007C0C0000950C0000AD0C0000C60C000082
:103A9000DE0C0000F70C0000100D0000280D0000E7
:103AA000410D0000590D0000720D00008B0D00004B
:103AB000A30D0000BC0D0000D40D0000ED0D0000B2
:103AC000050E00001E0E0000360E00004F0E000016
:103AD000670E0000800E0000980E0000B10E00007E
:103AE000C90E0000E20E0000FA0E0000120F0000E6
:103AF0002B0F0000430F00005C0F0000740F00004C
:103B00008C0F0000A50F0000BD0F0000D60F0000B5
:103B1000EE0F0000061000001F100000371000001C
:103B20004F10000068100000801000009810000086
:103B3000B0100000C9100000E1100000F9100000F2
:103B4000111100002A110000421100005A1100005A
:103B5000721100008A110000A2110000BB110000C8
:103B6000D3110000EB110000031200001B12000033
:103B7000331200004B120000631200007B120000A1
:103B800094120000AC120000C4120000DC1200000D
:103B9000F41200000C130000241300003C1300007A
:103BA000541300006C130000831300009B130000EB
:103BB000B3130000CB130000E3130000FB1300005D
:103BC000131400002B140000431400005A140000CA
:103BD000721400008A140000A2140000BA1400003D
:103BE000D1140000E91400000115000019150000AF
:103BF0003015000048150000601500007715000022
:103C00008F150000A7150000BE150000D615000096
:103C1000EE150000051600001D1600003416000009
:103C20004C160000641600007B160000931600007E
:103C3000AA160000C2160000D9160000F1160000F6
:103C4000081700001F170000371700004E1700006C
:103C5000661700007D17000094170000AC170000E5
:103C6000C3170000DA170000F2170000091800005F
:103C700020180000381800004F18000066180000D7
:103C80007D18000095180000AC180000C318000053
:103C9000DA180000F11800000819000020190000CF
:103CA000371900004E190000651900007C1900004A
:103CB00093190000AA190000C1190000D8190000CA
:103CC000EF190000061A00001D1A0000341A000047
:103CD0004B1A0000621A0000791A00008F1A0000C7
:103CE000A61A0000BD1A0000D41A0000EB1A00004A
:103CF000021B0000181B00002F1B0000461B0000C9
:103D00005D1B0000731B00008A1B0000A11B00004C
:103D1000B71B0000CE1B0000E51B0000FB1B0000D2
:103D2000121C0000281C00003F1C0000551C000055
:103D30006C1C0000831C0000991C0000AF1C0000DC
:103D4000C61C0000DC1C0000F31C0000091D000064
:103D5000201D0000361D00004C1D0000631D0000EA
:103D6000791D00008F1D0000A61D0000BC1D000075
:103D7000D21D0000E81D0000FE1D0000151E000001
:103D80002B1E0000411E0000571E00006D1E00008B
:103D9000831E0000991E0000B01E0000C61E000019
:103DA000DC1E0000F21E0000081F00001E1F0000A5
:103DB000341F0000491F00005F1F0000751F000036
:103DC0008B1F0000A11F0000B71F0000CD1F0000C7
:103DD000E21F0000F81F00000E2000002420000059
:103DE000392000004F200000652000007B200000EB
:103DF00090200000A6200000BB200000D120000081
:103E0000E7200000FC200000122100002721000014
:103E10003D21000052210000682100007D210000AA
:103E200092210000A8210000BD210000D221000045
:103E3000E8210000FD2100001222000028220000DD
:103E40003D22000052220000672200007D22000077
:103E500092220000A7220000BC220000D122000014
:103E6000E6220000FB2200001023000025230000B2
:103E70003A2300004F230000642300007923000050
:103E80008E230000A3230000B8230000CD230000F0
:103E9000E1230000F62300000B2400002024000092
:103EA00034240000492400005E2400007324000034
:103EB000872400009C240000B0240000C5240000DA
:103EC000DA240000EE24000003250000172500007E
:103ED0002C25000040250000542500006925000025
:103EE0007D25000092250000A6250000BA250000CF
:103EF000CF250000E3250000F72500000B26000079
:103F00001F26000034260000482600005C26000022
:103F1000702600008426000098260000AC260000D1
:103F2000C0260000D4260000E8260000FC26000081
:103F30001027000024270000382700004C2700002D
:103F40005F27000073270000872700009B270000E1
:103F5000AF270000C2270000D6270000EA27000094
:103F6000FD27000011280000242800003828000048
:103F70004B2800005F2800007228000086280000FF
:103F800099280000AD280000C0280000D4280000B7
:103F9000E7280000FA2800000E290000212900006F
:103FA00034290000472900005A2900006E2900002A
:103FB0008129000094290000A7290000BA290000E7
:103FC000CD290000E0290000F3290000062A0000A6
:103FD000192A00002C2A00003F2A0000522A000063
:103FE000652A0000772A00008A2A00009D2A000026
:103FF000B02A0000C22A0000D52A0000E82A0000EA
:10400000FA2A00000D2B0000202B0000322B0000AC
:10401000452B0000572B00006A2B00007C2B000072
:104020008E2B0000A12B0000B32B0000C62B00003C
:10403000D82B0000EA2B0000FC2B00000F2C000006
:10404000212C0000332C0000452C0000572C0000D0
:104050006A2C00007C2C00008E2C0000A02C00009C
:10406000B22C0000C42C0000D62C0000E82C00006C
:10407000F92C00000B2D00001D2D00002F2D00003D
:10408000412D0000522D0000642D0000762D00000F
:10409000882D0000992D0000AB2D0000BC2D0000E4
:1040A000CE2D0000E02D0000F12D0000032E0000B9
:1040B000142E0000252E0000372E0000482E000090
:1040C0005A2E00006B2E00007C2E00008D2E00006A
:1040D0009F2E0000B02E0000C12E0000D22E000046
:1040E000E32E0000F42E0000052F0000162F000024
:1040F000282F0000382F0000492F00005A2F000001
:104100006B2F00007C2F00008D2F00009E2F0000E1
:10411000AF2F0000BF2F0000D02F0000E12F0000C4
:10412000F12F0000023000001330000023300000A7
:10413000343000004430000055300000653000008D
:10414000763000008630000096300000A730000076
:10415000B7300000C7300000D8300000E830000061
:10416000F83000000831000018310000283100004C
:104170003831000049310000593100006931000038
:10418000793100008831000098310000A83100002A
:10419000B8310000C8310000D8310000E73100001C
:1041A000F73100000732000016320000263200000E
:1041B0003632000045320000553200006432000003
:1041C000743200008332000093320000A2320000FB
:1041D000B1320000C1320000D0320000DF320000F6
:1041E000EE320000FE3200000D3300001C330000F0
:1041F0002B3300003A3300004933000058330000ED
:1042000067330000763300008533000094330000EC
:10421000A3330000B2330000C1330000CF330000ED
:10422000DE330000ED330000FB3300000A340000F1
:1042300019340000273400003634000044340000F4
:104240005334000061340000703400007E340000FC
:104250008C3400009B340000A9340000B734000007
:10426000C6340000D4340000E2340000F034000012
:10427000FE3400000C3500001A350000283500001F
:10428000363500004435000052350000603500002E
:104290006E3500007C350000893500009735000040
:1042A000A5350000B3350000C0350000CE35000054
:1042B000DC350000E9350000F73500000436000069
:1042C000123600001F3600002C3600003A3600007F
:1042D0004736000054360000623600006F3600009A
:1042E0007C3600008936000096360000A4360000B7
:1042F000B1360000BE360000CB360000D8360000D4
:10430000E5360000F1360000FE3600000B370000F5
:104310001837000025370000313700003E37000015
:104320004B3700005737000064370000713700003A
:104330007D3700008A37000096370000A337000061
:10434000AF370000BB370000C8370000D43700008B
:10435000E0370000ED370000F937000005380000B5
:10436000113800001D3800002938000035380000E1
:10437000413800004D380000593800006538000011
:10438000713800007D380000893800009438000042
:10439000A0380000AC380000B7380000C338000077
:1043A000CF380000DA380000E6380000F1380000AD
:1043B000FD38000008390000133900001F390000E3
:1043C0002A39000035390000413900004C3900001D
:1043D00057390000623900006D390000783900005B
:1043E000833900008E39000099390000A43900009B
:1043F000AF390000BA390000C5390000D0390000DB
:10440000DA390000E5390000F0390000FB3900001E
:10441000053A0000103A00001A3A0000253A000060
:104420002F3A00003A3A0000443A00004F3A0000A8
:10443000593A0000633A00006D3A0000783A0000F3
:10444000823A00008C3A0000963A0000A03A000040
:10445000AA3A0000B43A0000BE3A0000C83A000090
:10446000D23A0000DC3A0000E63A0000F03A0000E0
:10447000FA3A0000033B00000D3B0000173B000030
:10448000203B00002A3B0000343B00003D3B000085
:10449000473B0000503B0000593B0000633B0000DD
:1044A0006C3B0000753B00007F3B0000883B000038
:1044B000913B00009A3B0000A33B0000AD3B000095
:1044C000B63B0000BF3B0000C83B0000D13B0000F2
:1044D000DA3B0000E23B0000EB3B0000F43B000055
:1044E000FD3B0000063C00000E3C0000173C0000B5
:1044F000203C0000283C0000313C0000393C00001A
:10450000423C00004A3C0000533C00005B3C000081
:10451000633C00006C3C0000743C00007C3C0000EC
:10452000843C00008C3C0000953C00009D3C000059
:10453000A53C0000AD3C0000B53C0000BD3C0000C7
:10454000C53C0000CC3C0000D43C0000DC3C00003A
:10455000E43C0000EC3C0000F33C0000FB3C0000AD
:10456000023D00000A3D0000123D0000193D000020
:10457000213D0000283D00002F3D0000373D000098
:104580003E3D0000453D00004D3D0000543D000013
:104590005B3D0000623D0000693D0000703D000091
:1045A000773D00007E3D0000853D00008C3D000011
:1045B000933D00009A3D0000A13D0000A73D000092
:1045C000AE3D0000B53D0000BB3D0000C23D000017
:1045D000C93D0000CF3D0000D63D0000DC3D00009D
:1045E000E23D0000E93D0000EF3D0000F53D000028
:1045F000FC3D0000023E0000083E00000E3E0000B0
:10460000143E00001B3E0000213E0000273E00003B
:104610002D3E0000333E0000383E00003E3E0000CC
:10462000443E00004A3E0000503E0000553E00005F
:104630005B3E0000613E0000663E00006C3E0000F4
:10464000713E0000773E00007C3E0000823E00008C
:10465000873E00008C3E0000923E0000973E000026
:104660009C3E0000A13E0000A73E0000AC3E0000C2
:10467000B13E0000B63E0000BB3E0000C03E000060
:10468000C53E0000CA3E0000CE3E0000D33E000002
:10469000D83E0000DD3E0000E13E0000E63E0000A6
:1046A000EB3E0000EF3E0000F43E0000F83E00004C
:1046B000FD3E0000013F0000063F00000A3F0000F1
:1046C0000E3F0000133F0000173F00001B3F00009B
:1046D0001F3F0000233F0000273F00002B3F00004A
:1046E0002F3F0000333F0000373F00003B3F0000FA
:1046F0003F3F0000433F0000473F00004A3F0000AB
:104700004E3F0000523F0000553F0000593F00005F
:104710005D3F0000603F0000643F0000673F000015
:104720006A3F00006E3F0000713F0000743F0000D0
:10473000783F00007B3F00007E3F0000813F00008B
:10474000843F0000873F00008A3F00008D3F00004B
:10475000903F0000933F0000963F0000993F00000B
:104760009C3F00009E3F0000A13F0000A43F0000CE
:10477000A63F0000A93F0000AC3F0000AE3F000094
:10478000B13F0000B33F0000B53F0000B83F00005C
:10479000BA3F0000BC3F0000BF3F0000C13F000027
:1047A000C33F0000C53F0000C73F0000C93F0000F5
:1047B000CB3F0000CD3F0000CF3F0000D13F0000C5
:1047C000D33F0000D53F0000D73F0000D83F000096
:1047D000DA3F0000DC3F0000DE3F0000DF3F00006A
:1047E000E13F0000E23F0000E43F0000E53F000041
:1047F000E73F0000E83F0000E93F0000EB3F00001A
:10480000EC3F0000ED3F0000EE3F0000EF3F0000F6
:10481000F03F0000F13F0000F23F0000F33F0000D6
:10482000F43F0000F53F0000F63F0000F73F0000B6
:10483000F83F0000F93F0000F93F0000FA3F000098
:10484000FB3F0000FB3F0000FC3F0000FC3F00007E
:10485000FD3F0000FD3F0000FE3F0000FE3F000066
:10486000FE3F0000FF3F0000FF3F0000FF3F000051
:10487000FF3F0000FF3F0000FF3F0000FF3F000040
:1048800000000000040404043838000008000000A0
:1048900008000008000008000000080000000002F6
:1048A0000406080A0C0E1014000102030405060792
:1048B000080A0002000001010200000001020200DB
:1048C00001000001020100020000000100000202DC
:1048D00001000000020101000200000201020001CB
:1048E00000000000044900080000002088050000C6
:1048F00088030008344A00088805002000050000ED
:1049000004010008013023C708233707321423B8F5
:104910001223E8035440420F200D18B7D1386F120C
:10492000033A89061342301C2542555505438470CD
:104930005144C21C643F78698B3AF5B5333D90C24F
:10494000F53BDA2344042343164B5E180823791AF7
:104950001ACC0C239B09337F0B22400574E5F3FF2F
:10496000FF23F4241B98019031290433680E021EA2
:10497000101AA7D01AF33401101AA2CC8B5EF4C817
:1049800029231AFF01811A4FF0012132401DC0FF77
:10499000FF473D320A1A9934B2C823CC0C321403B3
:1049A0001E66061AD340022323092628013D04204F
:1049B000FCFFFF031633034A043F0913403214027D
:1049C0001F0A091E20011C23210B1A67048123C220
:1049D000460213D823CC4C0B1C34B3E4091E8823A5
:1049E000938EB2B623FD290A35806C0A3D191081D9
:1049F00063E8033264323223D80E42C82240238B4C
:104A00002E591F11234D36721F230F3E6338012389
:104A1000C0307206236911191B01595A1E04016026
:104A200009126814A9E711720F32C3690CB20A297E
:044A300014720700F5
:04000005080000C12E
:00000001FF
