:020000040800F2
:10000000100B002059070008630700086507000867
:1000100000000000000000000000000000000000E0
:10002000000000000000000000000000670700085A
:100030000000000000000000690700085D370008AC
:10004000000000006D0700086D0700086D0700083C
:100050006D0700086D0700086D070008000000002C
:100060000000000000000000000000000000000090
:10007000D90C0008B93A0008E13A00086D070008F9
:10008000913A00086D0700086D07000800000000A5
:100090006D0700086D0700086D0700086D07000870
:1000A000000000006D07000800000000993D0008F6
:1000B000DD3D00080000000000000000000000001E
:1000C00000F002F800F030F80CA030C8083824180E
:1000D0002D18A246671EAB4654465D46AC4201D180
:1000E00000F022F87E460F3E0FCCB6460126334282
:1000F00000D0FB1AA246AB4633431847C046000067
:10010000E04600000023002400250026103A01D319
:1001100078C1FBD8520700D330C100D50B607047BF
:100120001FB51FBD10B510BD00F001FD1146FFF752
:10013000F7FF04F087FA00F019FD03B4FFF7F2FFB0
:1001400003BC00F01BFD000010B50446A0680028A9
:1001500001D0002060602078030004F064FA0705F5
:100160001146ACF8F3F2F100FC4801F045FF01F054
:100170001BFF2046E43002F016FD01202070E5E26E
:100180002079C007C00F00282ED020460C3002F086
:10019000CBFD012824D1F2488168216120460C3032
:1001A00002F085FD002804D0012805D0022815D1D1
:1001B0000CE001F026FE12E02046E4300522D201D8
:1001C0008018616901650220207008E0A06840087D
:1001D0004000401CA0600020207000E000BF03E051
:1001E00001F0E2FE01F00DFEB0E22079C007C00F81
:1001F00000285DD02046283002F098FB012852D11B
:10020000FF20AD30005D002809D149200006C16BF8
:10021000E162D348016821634168616308E04920D5
:100220000006C16BE162CE484168216301686163E9
:1002300001F0FAFD0146FF20B13001512246E432BF
:1002400021182046283002F0C9FA002804D00128DD
:1002500005D0022825D121E001F0D3FD22E021467E
:1002600028312046E43002F075FB4B20800101F07C
:10027000C3FEFF22AF32125DD200BA4BD318FF2269
:10028000AD32125D920099584322D200105988472E
:100290000A2001F09FFF0520207003E0032020705A
:1002A00000E000BF06E001F07FFE01F0AAFD01E0E2
:1002B000002020704AE22079C007C00F002843D0F8
:1002C00020465C3002F064F8012827D1492000065E
:1002D000C16B2166A248016861664168A16620463B
:1002E0005C3002F017F8002804D001280AD0022858
:1002F00012D10CE080210959984A5143080B01F0B2
:10030000C7FE0AE001F050FE0420207005E001F075
:100310004BFE0020207000E000BF17E08F4801F086
:100320006BFE802109598D4A5143080B01F050FEA4
:1003300080210959894A5143080B01F06DFD05E000
:1003400003E2C8E16EE002E000202070FEE12079C7
:10035000C007C00F002862D001F026FE2246E4321A
:100360000523DB01D218916CB02212597B4B5A4302
:10037000104600F02FFAAC2109594843010BA42084
:1003800001512046843002F0CBFD012837D174485A
:100390008168A02000598200204688308150214683
:1003A000E431001F02F042FD002804D0012810D0E3
:1003B000022822D117E0A0221259D200694BD3188B
:1003C000FF22AD32125D92009958A422105988473D
:1003D00014E04B20C00101F00FFEF02001F01CFDE5
:1003E000052020700AE01021A06888431030A0602A
:1003F00001F0DAFD0020207000E000BF11E0A4222F
:100400001059FF22AD32125D9200564B9958884721
:10041000A42109590846F03801F0FEFC01E0002053
:10042000207093E12079C007C00F002879D0FF2009
:10043000AD30005D002817D149200006C16B204671
:10044000E4300522D2018018C16345480168204686
:10045000E430AF2292008018416041484168204654
:10046000E4308018816016E049200006C16B204608
:10047000E4300522D2018018C16339484168204622
:10048000E430AF2292008018416035480168204670
:10049000E43080188160324881682046E4300522CB
:1004A000D2018018C1642046E43011464018C16C66
:1004B0002046E4308018006D814212DD2046E43091
:1004C00011464018C16C2046E4308018006D081AAF
:1004D000010340184000810A2046E430801841653D
:1004E00006E000212046E4300522D2018018416553
:1004F000E420005D002805D12146E431081D02F00A
:1005000069F873E0E420005D01286FD1E520005D0B
:10051000002807D0012827D0022841D0032863D122
:1005200061E0CFE02146E4310846283001F0A2FF27
:10053000E420005D022810D101F076FC0146FF2086
:10054000B13001512146E431201802F0BBFA0A20F3
:1005500001F040FE0421E420015546E080BB00008C
:1005600040000049F40400202146E43108465C3094
:1005700002F098F8E420005D022810D101F054FC4C
:100580000146FF20B13001512146E431201802F02C
:1005900099FA0A2001F01EFE0421E420015524E00E
:1005A0002146E4310846983001F032FEE420005D37
:1005B000022817D101F038FC0146FF20B13001516B
:1005C0002146E431201802F07DFAFF2199310A59C1
:1005D000FF21E13109594A43900901F0FBFD042153
:1005E000E420015501E000E000BF00BF2046E430F8
:1005F00002F0C7FA01F0E8FD2D210901411843205E
:10060000C0000059814202D201F0FBFB62E02046AB
:10061000E4300521C9014018416D2046E430FF3027
:100620008130C1612046E430FF309D3001F0D2FAC4
:100630002046E430FF308130C1682046E430FF308E
:100640008130C1652046E430FF309D30416820464E
:10065000E430FF30DD3041602046E430FF30DD30F3
:1006600002F0F0FE2046E430FF30DD30016A212048
:10067000000101512046FF30ED3002F066FB87217A
:100680008900085901F096FDFF22AF32125DD200B9
:100690002F4BD318FF22AD32125D9200995843229E
:1006A000D200105988470720C0012018006C8042F2
:1006B00010DA0720C0012018006C0721C901611859
:1006C000086407E001F070FC4B20800101F094FC0D
:1006D000062020703AE02079C007C00F002802D021
:1006E0000220207030E01B4881682046E43005225B
:1006F000D2018018C1642046E43011464018C16C14
:100700002046E4308018006D814212DA2046E43041
:1007100011464018016D2046E4308018C06C081A5C
:10072000010340184000810A2046E43080184165EA
:1007300006E000212046E4300522D2018018416500
:10074000CC21085901F0A4FC00E000BF00BF10BD9F
:10075000F40400204000004908490948804709483E
:100760000047FEE7FEE7FEE7FEE7FEE7FEE70000E4
:1007700005480649044A064B70470000FFFFFFFF8B
:1007800075370008C100000810070020100B00207A
:100790001007002001E004C0091F0429FBD28B07C9
:1007A00001D50280801CC90700D002707047002963
:1007B0000BD0C30702D00270401C491E022904D38B
:1007C000830702D50280801C891EE3E70022EEE742
:1007D0000022DFE7002203098B422CD3030A8B425D
:1007E00011D300239C464EE003460B433CD4002229
:1007F00043088B4231D303098B421CD3030A8B423B
:1008000001D394463FE0C3098B4201D3CB01C01A08
:10081000524183098B4201D38B01C01A52414309D3
:100820008B4201D34B01C01A524103098B4201D3C1
:100830000B01C01A5241C3088B4201D3CB00C01A2E
:10084000524183088B4201D38B00C01A52414308A6
:100850008B4201D34B00C01A5241411A00D20146CB
:100860005241104670475DE0CA0F00D04942031064
:1008700000D34042534000229C4603098B422DD3B3
:10088000030A8B4212D3FC22890112BA030A8B425B
:100890000CD3890192118B4208D3890192118B42AA
:1008A00004D389013AD0921100E08909C3098B422F
:1008B00001D3CB01C01A524183098B4201D38B0172
:1008C000C01A524143098B4201D34B01C01A524115
:1008D00003098B4201D30B01C01A5241C3088B425A
:1008E00001D3CB00C01A524183088B4201D38B0045
:1008F000C01A5241D9D243088B4201D34B00C01ACF
:100900005241411A00D20146634652415B101046E3
:1009100001D34042002B00D54942704763465B102B
:1009200000D3404201B50020C046C04602BD70471A
:1009300070477047F0B5FF252D04C609C209FF278F
:1009400004462E400137CB093E4348402A402B4005
:100950000746002A6BD0002B69D0AA4267D0AB4271
:1009600065D0002800DA32460125ED0529432C43E5
:1009700009022002090AD21A4B0C7F24E31A434CC5
:10098000000A7C44E35C7D242404121914145B00E7
:10099000A218884201D3521C00E0400049420C4694
:1009A0005C4324115C43DB016415E318040A5C43D7
:1009B000C502200D0C4644436419250A5D432303F8
:1009C000EC0C0D46654300030019EB184C42A342A2
:1009D00001D35B18401CD4052018002B07D05B0006
:1009E000C91804D3401C002901D1400840003F2110
:1009F00089048A4209D3002A08DC1106090F04D0B1
:100A0000032149074018C00FC007F0BD0122410073
:100A1000120689187F2252069142F6D20521490713
:100A2000C84201D59010F0BDFF20C005F0BD002FD9
:100A300000DA32461648AA4207D2AB4205D2190262
:100A4000090E17D0F80FC007F0BDFF2563002D0673
:100A5000AB42F9D84900A942F6D8AB4201D1A9422C
:100A6000F2D0A94201D1002101E061004908D0057E
:100A70000843F0BD1102090EFBD0FF200243D00550
:100A8000F0BD0A460146104654E70000F43D000060
:100A90000000C07F0102C21504D00123DB07194307
:100AA000002A0ADB9E239A1A02D40846D0407047D7
:100AB000FF2241001206914201D900207047C01761
:100AC000C04370471F22030C02D10F2200041CD028
:100AD000030E01D10002083A030F01D10001121FD9
:100AE000830F01D18000921E002801DB4000521EBE
:100AF000D2055118021251181922904004D3491CF2
:100B0000002801D14908490008467047C10FC907AC
:100B100000D04042012292071143D3E70121890707
:100B2000D0E7000000487047AC06002070477546CB
:100B3000FFF7F8FFAE46050069465346C008C000FF
:100B4000854618B020B5FFF713FE60BC00274908A2
:100B5000B6460026C0C5C0C5C0C5C0C5C0C5C0C555
:100B6000C0C5C0C5403D49008D46704710B504461C
:100B7000C046C0462046FFF7E0FA10BD01491820E4
:100B8000ABBEFEE72600020070B58C180578401C4D
:100B90006B075B0F01D10378401C2A1106D1027844
:100BA000401C03E00678401C0E70491C5B1EF9D106
:100BB0002B0705D40023521E0DD40B70491CFAE7F5
:100BC0000378401CCB1A921C03E01D780D70491C61
:100BD0005B1C521EF9D5A142D8D3002070BD02681B
:100BE0008A430260704701468868C007C00F01222F
:100BF0005040504070470146942040580222104017
:100C000040087047014694204058C007C00F012299
:100C10005040504070470000F8B506460D46286821
:100C2000070D3046FFF7DFFF00284ED13046FFF7B3
:100C3000E9FF002849D02868B16B032212059143CF
:100C40000143B16300BF002434E0002C06D0012C26
:100C50000CD0022C12D0032C20D117E0E100281D6B
:100C600042580121304600F028F918E0E100281D23
:100C700042581649304600F020F910E0E100281DE6
:100C800042581349304600F018F908E0E100281DE9
:100C900042581049304600F010F900E000BF00BF94
:100CA000E0002B1DC0184268E0001958304600F0E3
:100CB00041F9641CBC42C8DD304600F0F1F800BFC9
:100CC0003046FFF798FF0128FAD0F8BD0211000066
:100CD000032200000433000010B504204921090656
:100CE00009680140814201D1012100E00021002971
:100CF0000BD00420492109060968814349221206C4
:100D0000116000BF0148FFF71FFA10BDD00000209E
:100D100070B505460C462068A9681F22D20291438F
:100D20000143A96000BF2846616800F0FCF828462E
:100D3000A16800F09FF8206969680122920291433E
:100D40000143696000BF2846616900F09AF82846AF
:100D5000A16900F09DF8E0696968012212039143DE
:100D60000143696000BF2846216A00F0A0F870BD09
:100D7000F8B506460D462868070D3046FFF733FFE5
:100D800000283FD13046FFF73DFF00283AD02868C1
:100D9000F16A0722120591430143F16200BF00246A
:100DA00025E0062C0CDAE0002B1D1A58A0002018B4
:100DB00001235B0318430146304600F01BF90CE0A9
:100DC000E0002B1D1A58A01F8300C01801231B032D
:100DD00018430146304600F00DF9E0002B1DC01805
:100DE0004268E0001958304600F0A4F8641CBC4288
:100DF000D7DD304600F054F800BF3046FFF7FBFE69
:100E00000128FAD0F8BD70B505460C462068A968DF
:100E10000F22520491430143A96000BF6068A96892
:100E2000022291430143A96000BF2846A16800F057
:100E30007AF82846E16800F01DF82846216900F09C
:100E400020F82846616900F023F8A069696801224A
:100E5000D20291430143696000BFE06969680722DB
:100E6000520391430143696000BF2846216A00F0A4
:100E70001EF870BD826801239B029A430A43826078
:100E8000704742680123DB059A430A43426070477A
:100E90004268024B1A400A4342607047E0FD3FFF40
:100EA0009421095802221143942211507047C26DB7
:100EB00020239A430A43C2657047F7B504460D469E
:100EC000032000051F220146400805E04900C30732
:100ED000DB0F1943521E40080028F7D10F469740F8
:100EE00039460F46384603F081FB0146A06B0322CA
:100EF00012051040C840461CA06BE906C90EC91C6B
:100F0000891B8A008A181F21914088430299C906CB
:100F1000C90EEA06D20ED21C921B9300D218914041
:100F20000843A063FEBD4268FF2301339A430A438E
:100F300042607047F7B50C46172040011F2201465A
:100F4000400805E04900C307DB0F1943521E400863
:100F50000028F7D10E46964031460E46304603F043
:100F600045FB01462046172252011040C84081002F
:100F700000980C300D181F2000051F220146400864
:100F800005E04900C307DB0F1943521E4008002843
:100F9000F7D10E46964031460E46304603F026FB0A
:100FA0001F2212052240C240072090402F6887432D
:100FB0001F2000051F220146400805E04900C30725
:100FC000DB0F1943521E40080028F7D10E46964009
:100FD00031460E46304603F009FB014620461F22EB
:100FE00012051040C84002994907490F81400F433C
:100FF0002F60FEBDF7B507460C46032000031F22F5
:101000000146400805E04900C307DB0F1943521EA3
:1010100040080028F7D10E46964031460E4630462D
:1010200003F0E4FA01462046032212031040C840B0
:10103000810038462C300D18E206D20E1F21914057
:10104000286888430299C906C90EE206D20E91406B
:1010500008432860FEBD816808221143816000BFFB
:1010600000BF816808221140C9080029F8D100BFDB
:1010700000BF00BF816804221143816000BF00BF30
:1010800081680422114089080029F8D170470000C6
:1010900000B5ADB0242124A8FFF79AFB442113A882
:1010A000FFF796FB0F204004249002202590C001FA
:1010B000269000202790289029902A902B902C9001
:1010C00024A949200006FFF79EFE03200005139087
:1010D000454814900621159144491691062117910F
:1010E0004349189106211991BD2189001A910621C1
:1010F0001B9113A949200006FFF73AFE24210AA8F4
:10110000FFF766FB242101A8FFF762FB1720C0024E
:101110000A90FF2001300B9000200C900E900F9051
:101120001090119012900AA949200006FFF7F0FDD7
:101130000320000501902C481630029004210391F1
:101140002C490491042105912B4906910421079112
:101150002849163908910421099101A9492000065E
:10116000FFF75AFD00BF49200006806801210843AF
:1011700049210906886000BF80204968014349224F
:101180001206516000BF04211046FFF728FD4920D8
:101190000006FFF760FF00BF00BF4920000680681F
:1011A0000421084080080028F6D100BF492000062D
:1011B00080680905084349210906886000BF00BF0F
:1011C00002204921090609680140814201D101211B
:1011D00000E000210029F3D0022149200006FFF79A
:1011E000FEFC2DB000BD00000E00C00023009000EA
:1011F00027005001260020012800800110B502F0D0
:101200008DFA03204B490968C908C9000143494ABE
:10121000116000BF00BF48480068012108434649EB
:10122000086000BF00BF00BF4348006802210840BB
:1012300040080028F7D00320C0043F49496807222E
:101240009204914301433C4A516000BF00BF1046E5
:1012500000680121090608431146086000BF00BF6D
:1012600000BF35480068012149060840400E0028AB
:10127000F6D0002030494968F022914301432E4ABC
:10128000516000BF101511464968072212029143B0
:101290000143294A516000BF0020114649680722D6
:1012A000D20291430143244A516000BF02201146FB
:1012B0004968890889000143516000BF00BF00BF31
:1012C0001D4840680C2108400828F8D180061A49BA
:1012D0004968024691430143174A516000BF1748CD
:1012E00011464968C24311400143134A516000BF8F
:1012F0000F20000402F004F90120000602F000F9BA
:101300000120C00202F00CF9012002F001F90220D4
:1013100002F0FEF80120400302F002F9012002F081
:10132000FFF80120800302F0FBF80120400402F0E6
:10133000EFF810BD002002400010024000C0008005
:1013400000B58BB0282101A8FFF742FA00200190D8
:1013500002900390FF20013004904020059080010E
:101360000690F8200790012008A908700020099035
:101370000A9001A9064800F023FB00BF044800685A
:10138000012108430249086000BF0BB000BD000006
:101390000402014000B585B014216846FFF718FA31
:1013A000012001900290022003900020049004206C
:1013B00000906946644800F022FC082000906946CD
:1013C000614800F01CFC02200190002002900220E5
:1013D0000390012004900820009069465B4800F0CB
:1013E0000EFC01200490022000906946574800F04E
:1013F00006FC01200490802000906946524800F0CD
:10140000FEFB012004900420009069464F4800F044
:10141000F6FB01200490009069464C4800F0EFFB79
:1014200001200490402000906946474800F0E7FB07
:1014300003200190002002900220039000200490DD
:10144000012000906946404800F0D9FB4020009000
:1014500069463F4800F0D3FB1020009069463C48A5
:1014600000F0CDFB202000906946384800F0C7FB13
:10147000022000906946344800F0C1FB2020009013
:101480006946334800F0BBFB4020009003200190E8
:10149000002002900490039069460920C00600F0E5
:1014A000AEFB802000900320019000200290049069
:1014B000039069460920C00600F0A1FB00200290BD
:1014C000022003900020049040200090032001900F
:1014D00069460920C00600F092FB8020009003209E
:1014E000019069460920C00600F089FB04200490A1
:1014F000022001900120029002200390042000901D
:101500006946134800F07BFB002002900220009007
:1015100069460F4800F073FB0520049002200190FB
:101520000120029002200390102000906946074895
:1015300000F065FB002002902020009069460348DF
:1015400000F05DFB05B000BD00080048000C00483D
:101550000004004810B500210D2001F06BFE0D20A5
:1015600001F022FE0121102001F064FE102001F0A4
:101570001BFE01210C2001F05DFE0C2001F014FE89
:1015800002210E2001F056FE0E2001F00DFE042176
:101590001B2001F04FFE1B2001F006FE04211C2041
:1015A00001F048FE1C2001F0FFFD0521881F01F01D
:1015B00041FE0020C04301F0F7FD10BD00B587B02B
:1015C0001C216846FFF704F90120800300900420E5
:1015D0000190000402900020039004900120400735
:1015E0000590012006906946064801F087FE00BF7D
:1015F00004480068012108430249086000BF07B0A1
:1016000000BD00000403014010B500206D490968C9
:101610007022914301436B4A116000BF02201146C2
:10162000886200BF6848C86200BF0020086300BF2E
:1016300060220121634802F0C9FA002201216148B9
:1016400002F010FB002204215E4802F00BFB602236
:1016500010215C4802F0BAFA00221021594802F029
:1016600001FB00224021574802F0FCFA6022FF21D2
:101670000131544802F0AAFA0022FF2101315148F9
:1016800002F0F0FA0022012189024E4802F0EAFA43
:1016900000204C49486300BF00BF886300BF00BF03
:1016A000C86300BF60228914464802F08FFA002206
:1016B00001210903434802F0D5FAF02041490864AA
:1016C00000BF8815096803221202914301433D4A75
:1016D000116000BF48201146496C090A0902014304
:1016E000516400BF5014072109040022354B5B6C84
:1016F000364C234004460C4314432343314C63646B
:1017000000BF2046002101220446603463181C6893
:1017100094431C6000BF00230215194602F00EFA24
:101720002848002102220446603463181C681443D0
:101730001C6000BF00BF806F0121084321498867FA
:1017400000BF00BF0846806F022108431D4988671B
:1017500000BF00BF0846806F04210843194988670D
:1017600000BF00BF0846806F0821084315498867FD
:1017700000BF00BF0846406C5103884311494864CC
:1017800000BF8814096A01430E4A116200BF00BFFE
:101790001046406C0121C90308431146486400BF4C
:1017A00000BF08460068012108431146086000BFD9
:1017B0008021104602F0B3F91021024802F0AFF97F
:1017C00010BD0000003401407FBB0000FFDFF0EFE0
:1017D00000B585B014216846FEF7FAFF002001909D
:1017E0000490401E0290002003908F2168460180E3
:1017F00069460120800702F075FA00BF01208007CA
:101800000068012108438907086000BF002001909B
:1018100004900A480290002003908F2168460180BE
:101820006946074802F05EFA01200549C96801438C
:10183000034AD16000BF05B000BD0000FFFF0000FB
:101840000004004000B585B014216846FEF7C0FFD3
:101850004B20C001009000200190039002900C20CA
:10186000049069461F4802F0D3FB69461E4802F007
:10187000CFFB1E491B4802F07BFB1C492031194855
:1018800002F076FB1949174802F0CAFA174960318D
:10189000144802F0C5FA134802F05FFB114802F049
:1018A00057FB104802F05EFB10490F4802F060FB46
:1018B0000E4920310C4802F05BFB0C490A4802F04B
:1018C000AFFA0A496031084802F0AAFA064802F065
:1018D00044FB054802F03CFB034802F043FB05B023
:1018E00000BD00000038014000440040200000100E
:1018F00000BF1948406A012108431749486200BFE8
:1019000000BF00BF1448406A022108404008002878
:10191000F7D000BF11481249086000BF022048609C
:1019200000BF7D200001886000BF00BF00BF0C48E1
:10193000C0688007800F002801D1012000E000204E
:101940000128F3D100BF07480549086000BF00BF68
:101950000548086000BF7047001002405555000060
:1019600000300040AAAA0000CCCC000070B50446AC
:101970000D4600262E6B2068B04205D20221686811
:101980008843801C686006E06068B04203D9022189
:10199000686888436860A068B04201D2A66803E026
:1019A000E068B04200D9E668E368A268D11AF31A89
:1019B00022695A431046FEF70DFFE86470BD00002F
:1019C00010B54B680A681A438B681A4303681F4CAA
:1019D00023401A430260CB680A691A430368FF2454
:1019E000F134A3431A430260026807231B039A439E
:1019F0004B691A4302600A7F52000B6A1A43144B68
:101A00005B689B089B001A43114B5A60104A803A4E
:101A1000904208D11A465268F8239A438B691A43B8
:101A20000B4B5A6009E00A4A52681F231B029A4373
:101A30008B695B011A43064B5A60054A12685208CB
:101A400052004B6A1A43024B1A6010BDFF7FFCFC28
:101A50008002014010B5044600BF1249086C002105
:101A6000104A116400BF20656078022811D1207AE5
:101A70004007C00F00280CD121460B4800F01AF88F
:101A800021460A4800F016F82146094800F012F8ED
:101A900006E00020044988600449886004498860A1
:101AA00010BD000050040020A0050020AC0500205F
:101AB000B80500200A6D03689A420BD38268521C55
:101AC000826043689A420BD304238A689A43121DAA
:101AD0008A6005E08268002A02D08268521E826015
:101AE000704710B504468420005900284CD0207857
:101AF000030002F098FD05041B26313C47008421B9
:101B000009598A00211D88580A21FEF763FE8821A1
:101B10000851842109598A00211D88580A21FEF79D
:101B200059FE8C200151022020702CE02078401CAE
:101B3000C1B2217094200059814201D90220207045
:101B400021E02078401CC1B22170982000598142C8
:101B500001D90320207016E02078401CC1B221700A
:101B600094200059814201D9042020700BE0207894
:101B7000401CC1B221709C200059814201D9002033
:101B8000207000E000BF04E00020207000219020C1
:101B9000015110BD70B504460D4DA06800280FD04E
:101BA00000200AE001228240A1681140002903D0F0
:101BB000411C8422515102E0401C2028F2DB02E04B
:101BC0000021842041512846FFF78BFF70BD0000A3
:101BD0000C0600200268C16851430A02FF2301334A
:101BE000C168591A836859435118090A816081688C
:101BF0000912416070470A0282604160704770B507
:101C000005460C4610236068984302462846216822
:101C100000F055F86268110920686A68824303463B
:101C20004B431A436A6000BF28462269216800F0CE
:101C30000EF82846E268216800F077F82846A26886
:101C4000216800F0A8F870BD0A0482617047F7B5FA
:101C500004460D4628461F220146400805E049007B
:101C6000C307DB0F1943521E40080028F7D10E4668
:101C7000964031460E46304602F0B8FC81000F20F7
:101C80008840276A874328461F220146400805E00E
:101C90004900C307DB0F1943521E40080028F7D143
:101CA0000E46964031460E46304602F09FFC8100BB
:101CB0000298884007432762FEBD81617047F7B5EF
:101CC00004460D4628461F220146400805E049000B
:101CD000C307DB0F1943521E40080028F7D10E46F8
:101CE000964031460E46304602F080FC410003200B
:101CF00088402768874328461F220146400805E0A0
:101D00004900C307DB0F1943521E40080028F7D1D2
:101D10000E46964031460E46304602F067FC4100C2
:101D20000298884007432760FEBDF7B504460D467C
:101D300028461F220146400805E04900C307DB0F83
:101D40001943521E40080028F7D10E4696403146EE
:101D50000E46304602F04AFC410003208840A76846
:101D6000874328461F220146400805E04900C30773
:101D7000DB0F1943521E40080028F7D10E4696404B
:101D800031460E46304602F031FC41000298884050
:101D90000743A760FEBDF7B504460D4628461F223F
:101DA0000146400805E04900C307DB0F1943521EF6
:101DB00040080028F7D10E46964031460E46304680
:101DC00002F014FC410003208840E768874328465E
:101DD0001F220146400805E04900C307DB0F1943F5
:101DE000521E40080028F7D10E46964031460E4656
:101DF000304602F0FBFB4100029888400743E76051
:101E0000FEBD49200006806801214905084349219B
:101E1000090688607047000000BF0249086400BFDF
:101E2000704700000034014001208007406A70477D
:101E300010B504460B48446300200A498863C86310
:101E40000121084801F067FE04210748FFF7FCFE66
:101E500001210548FFF731FF40210448FFF7F4FE58
:101E600010BD000000340140000C0048000800488C
:101E700010B504460B48446300200A498863C863D0
:101E80000121084801F047FE04210748FFF7DCFE66
:101E900001210548FFF7D8FE40210448FFF70DFF58
:101EA00010BD000000340140000C0048000800484C
:101EB00010B5044600200B4948630846846300209F
:101EC000C8631021074801F026FE04210648FFF7E9
:101ED000F4FE01210448FFF7B7FE40210348FFF755
:101EE000B3FE10BD00340140000C0048000800485B
:101EF00010B5044600200B4948630846846300205F
:101F0000C8631021074801F006FE04210648FFF7C8
:101F10009BFE01210448FFF797FE40210348FFF78D
:101F2000CCFE10BD00340140000C00480008004801
:101F300010B5044600200A49486388630846C46314
:101F4000811501F0E8FD04210648FFF7B6FE0121E6
:101F50000448FFF779FE40210348FFF775FE10BDE6
:101F600000340140000C00480008004810B5044649
:101F700000200A49486388630846C463811501F05C
:101F8000CAFD04210648FFF75FFE01210448FFF760
:101F900094FE40210348FFF757FE10BD0034014076
:101FA000000C00480008004810B5002006494863AE
:101FB0008863C863FF211231034801F0A8FD03497B
:101FC000014801F0A4FD10BD0034014044040000AC
:101FD00010B50446064844638463C463FF2112318C
:101FE00001F099FD0349024801F091FD10BD000088
:101FF000003401404404000010B586B004461421AA
:1020000001A8FEF7E5FB02200290002003900220C9
:102010000490012005900820019001A91948FFF7BC
:10202000EEFD012005900220019001A91548FFF75F
:10203000E6FD012005908020019001A91248FFF7DC
:10204000DEFD012005900420019001A90D48FFF755
:10205000D6FD01200590019001A90A48FFF7CFFDA8
:10206000012005904020019001A90748FFF7C7FD16
:10207000611E064801F060FD4821044801F0A0FD02
:1020800006B010BD000C00480008004800340140B4
:1020900010B50446064844638463C463FF211231CB
:1020A00001F035FD0349024801F035FD10BD000087
:1020B000003401404404000010B50446074844635E
:1020C000002006498863C8635521044801F023FDB8
:1020D00005210902014801F01AFD10BD003401403C
:1020E00010B5044607484463002006498863C86366
:1020F0000549044801F00FFD5021024801F007FD99
:1021000010BD0000003401400505000010B5044674
:10211000002008494863084684630020C8635521AD
:10212000044801F0F8FC05210902024801F0EFFC27
:1021300010BD00000034014010B5044600200849DD
:102140004863084684630020C86355210901044898
:1021500001F0E1FC0521024801F0D9FC10BD0000AE
:102160000034014010B504460020064948638863E6
:102170000846C463044901F0CEFC5021014801F037
:10218000C6FC10BD003401400505000010B5044632
:1021900000200749486388630846C4635521090144
:1021A00001F0B9FC0521024801F0B1FC10BD0000AE
:1021B0000034014010B50446611E024801F0BCFC29
:1021C00010BD0000003401400148406A7047000023
:1021D000003401400021054A51621146C862096875
:1021E00001221143014A11607047000000040040C1
:1021F0000448006840084000024908600020486226
:1022000070470000000400400021016141617047F7
:1022100000B5CA22525C5300D2183D4B9A5C920022
:10222000AF239B00CB189A584260CA22525C5300DD
:10223000D218374BD21852789200AF239B00CB189C
:102240009A588260CA22525C5300D218304BD2187E
:1022500092789200AF239B00CB189A58C260CA2292
:10226000525C130002F0DFF906041C051D061E3443
:1022700000BF00BFC3684268D21883685B009A42FF
:102280000BDD0269521C0261836902699A4206D918
:102290000022026102220A7001E00022026118E0BD
:1022A00000BF00BFC3684268D21883685B009A42CF
:1022B0000BDA0269521C0261836902699A4206D9EB
:1022C0000022026102220A7001E00022026100E0A5
:1022D00000BF00BF0A78022A19D1FF22B13252583A
:1022E000036A9A4205D3FF2231325258436A9A4216
:1022F0000BD24269521C4261836A42699A4206D9F2
:102300000022426101224A7001E00022426100BDC8
:1023100098040020014600208B694A689A4215D231
:102320008B698A689A4211D28B69CA689A420DD227
:102330000A69521C0A610A69521C0A61CB699A42F5
:1023400004D102230A689A43921C0A604A69521C0B
:102350004A610B6A4A699A4204D104230A689A4383
:10236000121D0A600A789207D20F002A05D00A6867
:10237000520852000A60012009E00A785207D20F81
:10238000002A04D00A68520852000A6002207047EE
:10239000014600200A78D207D20F002A08D10A602D
:1023A0000A614A610A6852085200521C0A6000E041
:1023B0000120704770B504460E460025E069401CB8
:1023C000E061216AE069884202D20020A0611DE03C
:1023D000616A206A4018E169884205D9201D01F030
:1023E0002FF96069A06111E0616A206A4018A16A52
:1023F0004018E169884202D9E06AA06106E0002045
:10240000E061022120688843801C206020788007DA
:10241000C00F002804D0206840084000206001253B
:10242000284670BD70B504460D4600262078C007CA
:10243000C00F002814D12060E061201D616801F008
:1024400026F9A12080002818C16AA1208000281840
:1024500001F04BF8206840084000401C206000E07C
:102460000126304670BD70470021016141618161E4
:102470007047000000B5CA22525C5300D218514B7D
:102480009A5C9200AF239B00CB189A584260CA22F4
:10249000525C5300D2184B4BD21852789200AF23A3
:1024A0009B00CB189A588260CA22525C5300D21803
:1024B000444BD21892789200AF239B00CB189A58C5
:1024C000C260CA22525C130002F0ADF806042A056D
:1024D0002B062C5000BF00BFC3684268D218036AA5
:1024E0005A4383689B019A420CD90269521C0261CB
:1024F000436A02699A4212D90022426102610222B1
:102500000A700CE04269521C4261836A42699A4235
:1025100003D90022426103220A700022026126E0F0
:1025200000BF00BFC3684268D218C3695A438368BA
:102530009B019A420CD20269521C0261436A0269F1
:102540009A4212D900224261026102220A700CE012
:102550004269521C4261836A42699A4203D900224D
:10256000426103220A700022026100E000BF00BF46
:102570000A78022A13D1FF22B1325258C36A9A4212
:102580000BD98269521C8261036B82699A4206D917
:102590000022826101224A7001E0002282610A78F1
:1025A000032A0ED1FF2265325258521CFF23653395
:1025B0005A50CA22525C044B9B5CCA2253540122DB
:1025C0000A7000BD98040020B60400200021C160FC
:1025D0000161704700B5CA22525C5300D2182D4BDE
:1025E000D21852789200AF239B00CB189A584260C1
:1025F0000522D2018A18926C8260CA22525C1300B2
:1026000002F011F806041C051D061E3400BF00BFB1
:10261000836882695A4343689B019A420BD2C2681D
:10262000521CC260C369C2689A4206D90022C260C5
:1026300001220A7001E00022C26018E000BF00BF62
:10264000836842695A4343689B019A420BD9C26826
:10265000521CC260C369C2689A4206D90022C26095
:1026600001220A7001E00022C26000E000BF00BF4A
:102670004A78002A08D10269521C0261036A026981
:102680009A4201D901220A700A78012A01D1002256
:10269000026100BD98040020002101614161816157
:1026A0007047000000B5CA22525C5300D2184A4B52
:1026B0009A5C9200AF239B00CB189A584260CA22C2
:1026C000525C5300D218444BD21852789200AF2378
:1026D0009B00CB189A588260CA22525C5300D218D1
:1026E0003D4BD21892789200AF239B00CB189A589A
:1026F000C260CA22525C130001F095FF06041E0559
:102700001F06203800BF00BFC3684268D218036AA2
:102710005A4383689B019A420BD90269521C026199
:10272000436A02699A4206D90022026102220A70B3
:1027300001E0002202611AE000BF00BFC3684268E6
:10274000D218C3695A4383689B019A420BD202692B
:10275000521C0261436A02699A4206D90022026150
:1027600002220A7001E00022026100E000BF00BF07
:102770000A78022A1AD1FF22B1325258036B9A42C8
:1027800005D8FF2231325258436B9A420CD9426924
:10279000521C4261836B42699A4207D9002242610E
:1027A000826102224A7001E000224261FF22B132BE
:1027B0005258836A9A420BD28269521C8261C36A60
:1027C00082699A4206D90022426182614A7001E020
:1027D0000022826100BD00009804002070B503460D
:1027E00000201D6A5C68AC420BD21D6A9C68AC423A
:1027F00007D21D6ADC68AC4203D21C69641C1C61F0
:102800006EE09D685C68AC420FD9DD685C68AC42E4
:102810000BD9DD689C68AC4203D90225CA24A554B3
:102820001EE00125CA24A5541AE0DD689C68AC426C
:102830000BD9DD685C68AC4203D90325CA24A554D2
:102840000EE00425CA24A5540AE09D685C68AC42E9
:1028500003D90025CA24A55402E00525CA24A5549D
:10286000CB24A45C304D2D5DCA24A45CA54235D197
:102870009C69641C9C619D6A9C69AC422ED90024B1
:102880009C61DC69002C02D10C684C6017E04D683B
:102890000C68AC4204D94D680C68641B0C6305E0FD
:1028A0004D688C6B641B0D6864190C630D6BDC69DF
:1028B000641EA6000C460834A5510C684C60DC6907
:1028C000062C04D102251C68AC43A41C1C60DC69E6
:1028D000641CDC61CA24A55CCB24A55400241C61C3
:1028E0005D6A1C69AC4203D8DD6A5C69AC4204D9FC
:1028F00004251C68AC43241D1C601C78A407E40F4D
:10290000002C05D01C68640864001C60012009E0EC
:102910001C786407E40F002C04D01C686408640071
:102920001C60022070BD0000BC0400200146002095
:102930000A78D207D20F002A0AD10A600A614A61D6
:102940008A61CA610A6852085200521C0A6000E09B
:1029500001207047FEB504460D4602206070052038
:102960002070FF200930005940084000401CFF2122
:1029700009310851D4221359D82212599B18DC224C
:1029800012599B18E02212599B18E42212599B18E5
:10299000E82212599918FF2201321059FDF71AFF47
:1029A0000090FEF7BBF807468D21C90501F068FECF
:1029B00043490190FDF7BEFF0646FEF76BF8FF2185
:1029C000AD310851FF224D3212590B461B595A4363
:1029D0001046FF2255321159FDF7FCFE296B484382
:1029E00006460520C0012018816C3046FDF7F2FE36
:1029F000FF213531085108460159FF204D3000595B
:102A0000814205D9FF204D300159FF203530015159
:102A1000FF20AD3001592046FF30793000F037FEFD
:102A2000FF20353001592046FF30DD3000F05DFDDC
:102A3000FF203530015985208000201800F055FD19
:102A4000FF203530015993208000201800F04DFD03
:102A5000FF20353001592046FF300D3000F017FEC1
:102A6000FF20AD3001592018FFF7C5F8FF203530A1
:102A70000159FF2025300151FF2035300159FF2039
:102A800029300151FF2035300159FF202D300151EF
:102A9000FF2035300159001F0151FF2049300159F5
:102AA000FF2039300151FF2031300059FF213931E9
:102AB00009594843010BFF2035300151FEBD00008C
:102AC0005555D044FEB504460D46616820688842DD
:102AD00004D961682068401A206305E06168A06B32
:102AE000401A21684018206320686060A169E16194
:102AF0006169A16121696161E1682161A168E160A9
:102B0000206BA060E368A268D2182369D2186369B9
:102B1000D218A369D218E369D118606BFDF75AFE89
:102B20000090FDF7FBFF07468D21C90501F0A8FDC8
:102B30000B490190FDF7FEFE0646FDF7ABFFFF21B6
:102B4000AD3148516818FFF745F80520C001281835
:102B5000806D401C0521C90169188865FEBD000013
:102B60005555D0440021416081600022C26002615D
:102B700042618261C261026242628262C262016338
:102B8000704710B50446FF20313000590521C901B6
:102B90006118496D4843010BFF20BD3001512018D9
:102BA000FFF718F810BD10B5044600206070012032
:102BB0002070C920015DC8200155FF2079300159DE
:102BC000201800F064FD00212046FF309D30FFF703
:102BD00012F800212046FF30AD30FFF70CF800213D
:102BE0002046FF30BD30FFF706F800212046FF30B9
:102BF000CD30FFF700F800212046FF30DD3000F037
:102C000074FC002185208000201800F06EFC00215B
:102C100093208000201800F068FC0021A120800093
:102C2000201800F062FC201DFFF7D0FC2046283061
:102C3000FFF71AFC20465C30FFF72EFD2046983047
:102C4000FFF7E2FA2046C430FFF70DFC2046CC30F7
:102C5000FFF788FF2046FF30093000F0E0F82146FA
:102C60002046FF305D3000F0C1F900200521C90188
:102C70006118C863AF21890061184860AF218900DD
:102C8000611888600521C901611888640521C9019E
:102C90006118C8640521C901611808650521C901C9
:102CA000611848650521C9016118886510BD70B5B6
:102CB000044600256168A0684018A060E068401CD8
:102CC000E060A169E068884217D1E168A068FDF77B
:102CD00081FDA0602169A068884203D86169A0686D
:102CE000884205D2042120688843001D206004E04A
:102CF000022120688843801C206020788007C00F54
:102D0000002805D02068400840002060012509E027
:102D100020784007C00F002804D0206840084000F9
:102D200020600225284670BD014600200A78D2079F
:102D3000D20F002A07D10A60CA600A6852085200FE
:102D4000521C0A6000E00120704770B50446656CB3
:102D5000E069A84200D2E569206AA84200D2256A4B
:102D6000606AA84200D2656AA560201D00F068FC78
:102D70006069A0622078C007C00F002825D1616B70
:102D8000A06A884245D9216C206B884241D9E36B07
:102D9000626B5A431046A16AFDF71CFD2063E16B8C
:102DA000206B884201D9E06B2063216C206B884244
:102DB0002FD8A16BA06A884204D92068400840003F
:102DC000401C2060206C206323E0A16BA06A884235
:102DD0001FD2E16B206B88421BD2236CA26B5A433B
:102DE0001046A16AFDF7F6FC2063E16B206B884278
:102DF00009D3616BA06A884203D220684008400072
:102E00002060E06B2063216C206B884201D2206C33
:102E10002063216BA06A4843000BE06270BD002173
:102E2000016000224261C16B01637047F0B5024648
:102E30000024D069401CD061D069062867D155684C
:102E40000023012009E08600171DBE59AE4202D9B9
:102E500003468600BD59461CF0B20628F3D358003D
:102E60002C4E8619C820405C365CCA204654405C13
:102E7000294E305C8600101D8059CA26765C274F8B
:102E8000BE5DB600171DBE59B04206D9CA20405CCF
:102E9000214E365CCA20465405E0CA20405C1F4ED5
:102EA000365CCA20465404261068B04310600226DF
:102EB0001068B043801C1060002010E08600171DD1
:102EC000BE59576ABE4208D202271668BE43166032
:102ED00004271668BE43361D1660461CF0B206284D
:102EE000ECD310788007C00F002805D01068400888
:102EF00040001060012409E010784007C00F00284E
:102F000004D01068400840001060022400BF204632
:102F1000F0BD0000AA040020BC040020B60400207C
:102F2000014600200A78D207D20F002A08D10A6091
:102F30000722CA610A6852085200521C0A6006E061
:102F4000CA69072A02D10022CA6100E00120704745
:102F5000F0B502460025002300244878002807D158
:102F600016699068B0423AD300209060012536E09F
:102F7000D42043584458012015E087000E46D4362B
:102F8000F6599E4203D287000E46D436F359870085
:102F90000E46D436F659A64203D987000E46D436DB
:102FA000F459461CF0B20628E7DBA60190695843A5
:102FB000864200D201250520C0010818806DD66820
:102FC000B0420AD15068401C506056695068B04207
:102FD00005D900205060012501E000205060052047
:102FE000C0010818806DD0602846F0BD0022026044
:102FF00082604260C2600523DB01CB189A6570478E
:1030000070B504462078052875D14720C0000159C5
:10301000001D0059091A81208000005941438F206A
:103020008000005980030818810B2046E430FF30EF
:10303000793041602046E430FF30793000F000FB09
:103040002046E430FF30793001692046E430FF301B
:10305000FF30023041612046E430FF30AD3041683E
:103060002046E43085229200801841602046E430FA
:103070001146401800F0E6F92046E4308521890029
:103080004018016A4120C00001512046E430FF3061
:10309000813001692046E430FF30FF300230C164E6
:1030A0002046E430FF30BD3041682046E4309322B2
:1030B0009200801841602046E4301146401800F02C
:1030C000C1F92046E430932189004018016A832029
:1030D000800001512146E4310846FF305D30FFF7A2
:1030E00037FFC000082108400546A06888432843F0
:1030F000A06015E0FFE72078062811D12146E431D1
:103100002046B430FFF78EF9012809D12146E43179
:103110002046B430FFF74EF9012801D1002020707D
:1031200070BD10B50446FEF76CFE10BD10B5044628
:10313000FEF73AFF10BD000010B5044620780528C0
:103140002BD1E420005D04281DD1FFF751F80521A3
:10315000E4200155FF20AF30005D1149095CFF20DC
:10316000AF3001550246125DD2000E4BD318821EBD
:10317000125D920099584322D200105988470A20C4
:10318000FFF728F80BE0E420005D052807D10021B7
:10319000E4200155FFF72CF801E0FFF729F810BDF6
:1031A000BC040020F4040020C206D20E012191408C
:1031B000014A11607047000000E100E010B50028EE
:1031C00019DA1A4A03071B0F083B9B089B00D258C9
:1031D0008307DC0EFF23A3409A438B071B0E840753
:1031E000E40EA3401A43114B0407240F083CA40823
:1031F000A4001A5118E00E4A03231B02D2188308B8
:103200009B00D2588307DC0EFF23A3409A438B0711
:103210001B0E8407E40EA3401A43054B032424022B
:103220001B198408A4001A5110BD00001CED00E019
:1032300000E100E010B5002819DA1A4A03071B0F55
:10324000083B9B089B00D2588307DC0EFF23A3405A
:103250009A438B071B0E8407E40EA3401A43114BBD
:103260000407240F083CA408A4001A5118E00E4AD1
:1032700003231B02D21883089B00D2588307DC0E5D
:10328000FF23A3409A438B071B0E8407E40EA34041
:103290001A43054B032424021B198408A4001A5165
:1032A00010BD00001CED00E000E100E0C16802225A
:1032B0009143C1607047C16849084900C1607047C7
:1032C000C16889088900491CC16070470449896840
:1032D000FF22013291430143014A9160704700008F
:1032E00000030140044989680122520791430143C8
:1032F000014A9160704700000003014070B5054627
:103300000C4600BF2868C00F002849D16068042817
:1033100047D1A069002804D001280DD0022828D167
:103320001CE000BFE86880088000801CE86000BFE7
:103330002846FFF7C0FF1CE02846FFF7B7FF2846E6
:10334000FFF7BEFF0820E968082291430143E960C6
:1033500000BF0021284600F063F80AE02846FFF786
:10336000A5FF2846FFF7ACFF0421284600F058F8D7
:1033700000BF00BF616820680843A168084329684E
:10338000244A1140084328602348854241D1E0681F
:1033900000F04CF82069FFF799FF6069FFF7A2FF82
:1033A00037E060680C281AD12846FFF77FFF2846CF
:1033B000FFF781FFA168606808432968174A114038
:1033C000084328601448854223D1E06800F02EF8B5
:1033D0002069FFF77BFF6069FFF784FF19E028464B
:1033E000FFF764FF2846FFF766FFA168606808439F
:1033F00029680A4A1140084328600748854208D1D5
:10340000E06800F013F82069FFF760FF6069FFF7DC
:1034100069FF70BDF33FF9FF08030140F3FFF9FFB7
:10342000C26804239A430A43C2607047044989680A
:103430000122520291430143014A9160704700000A
:103440000003014010B543680268D11A036BCB1A20
:1034500082685A43C3684B43D318426B5218046BBB
:103460006400121B046962439A18426183699B03DA
:1034700042699A4201DA426901E082699203C369B2
:103480009B039A4209DD83699B0342699A4201DAF0
:10349000426904E08269920301E0C26992034261D9
:1034A0004369426AD2184262836A9B03426A9A4223
:1034B00001DA426A01E0826A9203C36A9B039A427C
:1034C00009DD836A9B03426A9A4201DA426A04E098
:1034D000826A920301E0C26A92034262426A9213D4
:1034E0000262026B4263016310BD0022026042600F
:1034F00042610263426301628A03426270470000D4
:10350000024949690143014A516170470010024074
:103510000249C9690143014AD16170470010024064
:10352000024989690143014A9161704700100240D4
:1035300010B500F069F804494968F0221140090902
:10354000024A515CC84010BD0010024030470008DC
:1035500010B5FFF7EDFF0549496807221202114037
:10356000090A034A515CC84010BD00000010024027
:103570004047000810B5FFF7DBFF054949680722FF
:10358000D2021140C90A034A515CC84010BD000074
:10359000001002404047000800201549154A5268B3
:1035A00007239B041A40920C002A07D1114A526843
:1035B0001A40920C0A324A43104618E00D4A5268EB
:1035C00007239B041A40920C012A07D1094A52682A
:1035D0001A40920C0B324A43104608E0054A5268E2
:1035E00007239B041A40920C0C324A431046704742
:1035F00000127A0000100240024840680C21084086
:10360000704700000010024070B500247D252D0297
:103610000A4EFFF7F1FF002804D0082806D00C2836
:1036200002D000BF344605E02C4603E0FFF7B4FFAC
:10363000044600BF00BF204670BD00000024F40017
:103640000269416891420DDD82680169891842680A
:10365000914204DA826801698918016116E04168C3
:10366000016113E00269416891420DDAC2680169A3
:1036700089184268914204DD82680169891A0161F2
:1036800004E04168016101E0416801617047016146
:103690007047000010B502461D481E4900BF1E4B72
:1036A0005B6893655378002B2ED0137A1B07DB0FD2
:1036B000002B0FD1936D0468A34208D383685B1C71
:1036C00083604468A34207D30023836004E000239F
:1036D000836001E000238360137ADB06DB0F002B9D
:1036E0000FD1936D0C68A34208D88B685B1C8B606C
:1036F0004C68A3420BD300238B6008E000238B604F
:1037000005E000238B6002E0002383608B6010BD26
:10371000C4050020D00500206003002010B50C4C2B
:10372000601E0C49884201D901200CE0601E0A4944
:1037300048610321081FFFF741FD00200649886109
:10374000072008610020002801D000BFFEE710BD5F
:1037500080320200FFFFFF0000E000E010B50348E8
:1037600000F084F90248FFF74BFC10BD240500204F
:10377000D000002024480068012108432249086045
:1037800008464068214908401F49486008460068CB
:103790001F4908401C490860084600680121890447
:1037A000884319490860084640687F210904884316
:1037B000154948609F20000488600120000649697F
:1037C0000143114A516100BF124800690321890475
:1037D0000843104908610F484030406902210843FE
:1037E0000C494031486100BF0A484030406902211D
:1037F00008400228F8D0C805034949698143024AB4
:10380000516100BF70470000001002400000FFF847
:10381000FFFFF6FE4000004910B504460E48C06A9E
:10382000E0600D48006BE0610B48406BE0620A48C5
:10383000806BE06320460C30FEF7CCF920461C304C
:10384000FEF7C8F920462C30FEF7C4F920463C307C
:10385000FEF7C0F910BD00004000004910B5044655
:103860002046FFF7D9FF0020002803D10022384965
:103870004A7202E0012236494A7200BF2069354986
:10388000886400BFE06CFF397939886100BF00BFF0
:1038900031488068002804D0A06840084000401CDF
:1038A000A0606078002806D0012812D0022828D015
:1038B00003284AD13CE0606E401C6066216E88425D
:1038C00006D300206066204600F048F801206070B2
:1038D0003CE0A068002807D000BF00201E494860D7
:1038E00000BF032060700BE020798007C00F002824
:1038F00006D000BF01201849486000BF0220607058
:1039000024E0A068002807D000BF002012494860CA
:1039100000BF032060700AE020798007C00F0028F4
:1039200005D100BF0C49486000BF012060700DE068
:1039300020798007C00F002806D1A06000BF06498B
:10394000886000BF0120607000E000BF00BF10BDB4
:103950007402002034040020D000002010B504467A
:103960000C48C16A20460C30FEF745F90948016B46
:1039700020461C30FEF73FF90648416B20462C30AC
:10398000FEF739F90348816B20463C30FEF733F9E6
:1039900010BD00004000004910B504462079C00762
:1039A000C00F002859D02078401C20702B48FFF70A
:1039B00055FF21462A48FDF7D9FF2078C007C00FE0
:1039C000002804D000F0CEFB00F028FC41E0207875
:1039D00002210840022804D100F09CFC00F010FDF8
:1039E00037E0207804210840042832D020780821CC
:1039F0000840082803D1194800F0B4FD29E02078D8
:103A000010210840102803D11448FEF723F820E0C5
:103A1000207820210840202803D11048FFF73AFEE3
:103A200017E0207840210840402803D10B48FEF7DA
:103A3000B1F80EE0207880210840802803D10748A3
:103A400000F06AF905E000BF06480749086000BFBA
:103A500000BF606840084000606010BD2405002081
:103A60008C050020AAAA0000003000400179C90797
:103A7000C90F002905D1416849084900491C416026
:103A800004E0022281689143891C81607047000034
:103A900010B50121064800F046F8002806D00121A3
:103AA000034800F031F80348FFF746FB10BD000063
:103AB00000040040D000002010B58021064800F02E
:103AC00032F8002806D08021034800F01DF8034892
:103AD000FFF72CFB10BD000000340140D000002097
:103AE00010B51021064800F01EF8002806D010215D
:103AF000034800F009F80348FFF713FB10BD00006E
:103B000000340140D0000020CA4302617047026ABD
:103B10008A4302627047026A0A4302627047C268BF
:103B20000A43C2607047024610690840884201D1CA
:103B3000012070470020FCE7C1627047FFB581B0EB
:103B400006461446304660300299401800902046E0
:103B50001F220146400805E04900C307DB0F194357
:103B6000521E40080028F7D10D46954029460D46C3
:103B7000284600F03BFDC106C90E012040028840E6
:103B800000990F68874320461F220146400805E040
:103B90004900C307DB0F1943521E40080028F7D124
:103BA0000D46954029460D46284600F01FFDC106EA
:103BB000C90E0498884007430098076005B0F0BD1F
:103BC000426C120A12020A4342647047F0B503467F
:103BD0001446012901D100252AE0042901D101253B
:103BE00026E0102901D1022522E0402901D1032538
:103BF0001EE0FF250135A94201D1042518E0012569
:103C0000AD02A94201D1052512E001252D03A942EB
:103C100001D106250CE00125AD03A94201D10725FC
:103C200006E001252D04A94201D1082500E009255F
:103C30002846094D2E5C1D46183572191568074E29
:103C4000375C074EBE40B543044E365C2746B7404E
:103C50003D431560F0BD000048470008524700088A
:103C60007300010070B5012901D100242AE0042964
:103C700001D1012426E0102901D1022422E04029AB
:103C800001D103241EE0FF240134A14201D1042408
:103C900018E00124A402A14201D1052412E001246C
:103CA0002403A14201D106240CE00124A403A14273
:103CB00001D1072406E001242404A14201D10824F3
:103CC00000E009242346046A054DEE5C0225B54058
:103CD000AC43034DEE5C1546B5402C43046270BD09
:103CE0006647000810B50022026870241346A343FB
:103CF0001A464B681A43032424021346A3431A4668
:103D0000CB681A4302608B68C3620B8883620B69BD
:103D100003630123436110BD10B502461C481D49D1
:103D2000136AD3655378002B2ED0137A1B06DB0F52
:103D3000002B0FD1D36D0468A34208D383685B1CAA
:103D400083604468A34207D30023836004E0002318
:103D5000836001E0002383601389DB05DB0F002B08
:103D60000FD1D36D0C68A34208D88B685B1C8B60A5
:103D70004C68A3420BD300238B6008E000238B60C8
:103D800005E000238B6002E0002383608B6010BDA0
:103D9000DC050020E805002010B50E490E4800F0B3
:103DA0000EF9012806D10B490B4800F085F800F008
:103DB00091FA0DE007496031074800F000F9012849
:103DC00006D104492031044800F076F800F090FB59
:103DD00010BD0000200000100038014010B50E4951
:103DE0000E4800F0ECF8012806D10B490B4800F012
:103DF00063F800F07FFA0DE007492031074800F032
:103E0000DEF8012806D104492031044800F054F8B6
:103E100000F08AFB10BD00002000001000440040AC
:103E200008B5244A914201D1012200E00022214B31
:103E30005B1C994201D1012300E000231A431D4B72
:103E4000DB1C994201D1012300E000231A43194BE6
:103E5000DB1D994201D1012300E000231A43154BD9
:103E60000F33994201D1012300E000231A43002AB5
:103E700006D00268009200BF4268009200BF17E0BF
:103E8000012212070A4001231B079A4204D10A01AA
:103E90001209D24302600BE0012252070A400123BB
:103EA0005B079A4204D1C268CB00DB089A43C26028
:103EB00008BD00000100001008B5244A914201D15C
:103EC000012200E00022214B5B1C994201D1012319
:103ED00000E000231A431D4BDB1C994201D1012352
:103EE00000E000231A43194BDB1D994201D1012345
:103EF00000E000231A43154B0F33994201D10123EF
:103F000000E000231A43002A06D00268009200BF96
:103F10004268009200BF17E0012212070A40012305
:103F20001B079A4204D10A011209D24302600BE036
:103F3000012252070A4001235B079A4204D1C2685A
:103F4000CB00DB089A43C26008BD000001000010EE
:103F5000C16804229143C1607047C168082291433F
:103F6000C1607047C168012252031143C1607047AC
:103F7000012212070A4001231B079A4205D1C26899
:103F80000B011B091A43C26018E0012252070A40C4
:103F900001235B079A4205D10269CB00DB081A4373
:103FA00002610BE0012292070A4001239B079A421B
:103FB00004D142698B009B081A4342617047024654
:103FC00001200007084001231B0798420BD110680D
:103FD0000B011B0918400B011B09984201D101205C
:103FE00070470020FCE701204007084001235B07E1
:103FF00098420BD1D068CB00DB081840CB00DB081F
:10400000984201D10120EBE70020E9E70020E7E733
:104010007FB504460D4600260020009001900290D6
:104020000390FFF7F1FA0090FFF782FA0190FFF793
:104030008FFA0290FFF79EFA039000BFE06801211B
:1040400049030840400B002824D1E9686868084308
:1040500029690843E168104A11400843E060A868F4
:1040600021690322120391430143216100BF0B48E0
:10407000844201D1039E03E00948844200D1029E9C
:10408000002E07D02868002804D0314620462A6830
:1040900000F008F87FBD0000F3E9FFFF00380140A1
:1040A00000440040F7B582B00C461546A90019221D
:1040B00062431046FCF78EFB06466421FCF78AFB40
:1040C0000701A900192262431046FCF783FB06464C
:1040D000A900192262431046FCF77CFB6421009082
:1040E000FCF778FB64214843301A0001323001901C
:1040F000FCF770FBF02108403F18A9001922624329
:104100001046FCF767FB0646A900192262431046D9
:10411000FCF760FB64210090FCF75CFB64214843E2
:10412000301A000132300190FCF754FB0007000FF9
:10413000381881B20298816005B0F0BD0348C068AC
:10414000042188430149C8607047000000380140DD
:104150000348C068042188430149C86070470000D3
:104160000044004010B52B4C2078002806D00128D0
:104170001BD0022836D0032849D142E02079C0075D
:10418000C00F002810D0E06D401CE06503280BD95B
:104190000020E06500BF2048C068042108431E4994
:1041A000C86000BF0120207032E0616D606C884201
:1041B00003D3FFF7C3FF03202070E16C606C8842DB
:1041C0000DD1606C00280AD0E06D401CE06503282A
:1041D00005D90020E065FFF7B1FF02202070606C78
:1041E000E06415E00020E06460646068400840001E
:1041F0006060022160688843801C6060002020703D
:1042000006E000206064E064E065207000E000BF2C
:1042100000BF10BD000000200038014010B52B4C3D
:104220002078002806D001281BD0022836D0032889
:1042300049D142E02079C007C00F002810D0E06DBE
:10424000401CE06503280BD90020E06500BF204832
:10425000C068042108431E49C86000BF01202070C7
:1042600032E0616D606C884203D3FFF771FF032079
:104270002070E16C606C88420DD1606C00280AD01F
:10428000E06D401CE065032805D90020E065FFF7DC
:104290005FFF02202070606CE06415E00020E064A5
:1042A0006064606840084000606002216068884384
:1042B000801C60600020207006E000206064E064E4
:1042C000E065207000E000BF00BF10BD6800002066
:1042D00000440040054806494968CAB2436C591C6D
:1042E000416401460831CA547047000000000020B4
:1042F00000380140054806494968CAB2436C591C58
:10430000416401460831CA5470470000680000202B
:104310000044004038484178002906D0012951D096
:10432000022956D0032964D15BE001798907C90FBE
:1043300000293BD0016E491CFF22F53201669142F3
:1043400034D900210166816401650122836C591C06
:10435000816401462631CA540322836C591C81644E
:1043600001462631CA540522836C591C81640146DA
:104370002631CA540722836C591C816401462631B8
:10438000CA540922836C591C816401462631CA54DF
:104390002621095C194A516000BF1146C9680822EC
:1043A0001143164AD16000BF01214170416E491C82
:1043B0007D22D2004166914203D90021416603214A
:1043C000417017E0426CC16C914201D102214170F1
:1043D00010E0416849084900491C416000214170D2
:1043E00008E0416849084900491C416000214170CA
:1043F00000E000BF00BF704700000020003801400F
:1044000038484178002906D0012951D0022956D0D8
:10441000032964D15BE001798907C90F00293BD0EA
:10442000016E491CFF22F5320166914234D9002108
:104430000166816401650122836C591C8164014617
:104440002631CA540322836C591C816401462631EB
:10445000CA540522836C591C816401462631CA5412
:104460000722836C591C816401462631CA540922F3
:10447000836C591C816401462631CA542621095C8B
:10448000194A516000BF1949C96808221143174AE7
:10449000D16000BF01214170416E491C7D22D200D4
:1044A0004166914203D9002141660321417017E022
:1044B000426CC16C914201D10221417010E041680F
:1044C00049084900491C41600021417008E04168E9
:1044D00049084900491C41600021417000E000BFCB
:1044E00000BF7047680000200038014000440040D1
:1044F0000B48016D491C024626320165515C094A90
:104500005160826C016D914208D100BF0549C968B4
:1045100008229143034AD16000BF00BF70470000EA
:1045200000000020003801400B48016D491C024684
:1045300026320165515C094A5160826C016D9142DD
:1045400008D100BF0649C96808229143044AD160D6
:1045500000BF00BF70470000680000200038014025
:104560000044004010B502461E481F4913691C0351
:104570001B195B009B0A53655378002B2ED0137ACE
:104580009B06DB0F002B0FD1536D0468A34208D3A9
:1045900083685B1C83604468A34207D30023836065
:1045A00004E00023836001E000238360137A5B064C
:1045B000DB0F002B0FD1536D0C68A34208D88B681A
:1045C0005B1C8B604C68A3420BD300238B6008E01C
:1045D00000238B6005E000238B6002E000238360F2
:1045E0008B6010BDF4050020000600200246202349
:1045F000110C002901D0103B0A46110A002901D0F4
:10460000083B0A461109002901D01B1F0A469108E0
:10461000002901D09B1E0A465108002901D0981E8E
:104620007047981AFCE730B47446641E2578641C01
:10463000AB4204D3635D5B00E31830BC18471D46F2
:10464000F8E7000072B6FCF7D9FDFCF7A3FEFCF713
:104650001FFDFCF7D9FFFCF7B1FFFCF771FEFDF77A
:10466000B7F8FCF777FFFDF7EDF8FDF741F962B613
:1046700000BF0248FFF790F9FBE700002405002087
:1046800070B5420064414B005C41120E39D01B0EE4
:1046900038D0FF2A3CD0FF2B3AD040024902400AD2
:1046A000490A060045184E43000A090AD218484331
:1046B000ED017F3A0104731A4019190C4318990F40
:1046C00004D001215B0849075B1A521CD80904D3A6
:1046D000401CF50301D19D0607D0FF2A08D2D5055D
:1046E00006D0E4072043401970BD0125A843F4E734
:1046F000002A01DCE00770BD2402FF202043C00532
:1047000070BD1B0EFF2A03D0FF2B01D0E00770BD48
:10471000FF2645003606B54206D84D00B54203D8FF
:10472000D218FF2A00D0E7E7004870BD0000C07F24
:104730000000000000000000010203040607080951
:10474000000000000102030400000000040404044F
:1047500038380000080000000800000800000800C9
:1047600000000800000000020406080A0C0E1014E5
:104770000001020304050607080A818283848586F6
:104780008788898B8C8D8E8F919293959697999A25
:104790009C9D9FA0A2A3A5A7A8AAACAEB0B2B3B59A
:1047A000B7B9BCBEC0C2C5C7C9CCCED1D4D7D9DC7D
:1047B000DFE2E6E9ECF0F3F7FAFE0000DC47000880
:1047C000000000200C060000880B00084C4900087F
:1047D0000C060020040500000401000801545A1EC4
:1047E000040160092E6823340323A4010223143238
:1047F00032292832021AE8382A9C0909192C320A6F
:10480000331027022608295432CC69581A33102352
:1048100066063251C5AFFFFFFF5A64042934110206
:104820001A1032335A0DB41AF4E8011C32259A1BBF
:10483000E0297C29C409263423CC04420519F02937
:10484000BC390C0117293029B729641A660D091AD9
:104850002C01241440420F1AFF014172CC32515AEC
:10486000AF14011C29AC29BC1A80CD4BC012993958
:1048700044222003128901323232C8321F692019C2
:10488000F3115AF86C234517234F091A8D1CE3E4E2
:1048900014F219092A105AA304813228AAD8E0690F
:1048A000B8F129A3191B3908092A380936700936C5
:1048B0003801211302011A01042C0201020B1A0211
:1048C0000D15040305042A05131B03050F2B030410
:1048D00004320513311E5B087104290C1AF104130C
:1048E0006D1F2B08B11019082904290C2914291C43
:1048F00013B9205B08E104290C1339211B088D042E
:104900001A0D045A6504290C2914291C01180A3DA2
:1049100019108163E8033264323223D80E42C82270
:1049200040238B2E591F11234D36721F230F3E63D8
:1049300038011BCC4C10712A621C71B20A29147206
:0C4940000723C0307206236911194B5187
:04000005080000C12E
:00000001FF
